:100000000020001035040000AD040000AD04000025
:1000100000000000000000000000000000000000E0
:10002000000000000000000000000000AD0400001F
:100030000000000000000000AD04000029030000E3
:10004000AD040000AD040000AD040000AD040000EC
:10005000AD040000AD040000AD040000AD040000DC
:10006000AD040000AD040000AD040000AD040000CC
:10007000AD040000AD040000AD040000AD040000BC
:10008000AD040000AD040000AD040000AD040000AC
:10009000AD040000AD040000AD040000AD0400009C
:1000A000AD040000AD040000AD040000AD0400008C
:1000B000AD040000AD040000AD040000AD0400007C
:1000C00080B582B000AF00237B608B4B00221A60AA
:1000D0008A4B1A68894B8A490A431A60894B1A6805
:1000E000884B89490A401A60864B1A68854B8021E3
:1000F000C9000A431A60854B1B68844B00221A60B2
:10010000824B1B68814B00221A60804B1A687F4B20
:10011000802189000A431A607C4B1A687B4B80213E
:1001200049000A431A60794B1A68784B80210A43C8
:100130001A60774B180000F01BF9FA239B00180097
:1001400000F002F9734B1B78DBB2012B02D10123C3
:100150007B6006E0704B1B78DBB2012B01D10223E0
:100160007B607B68012B03D07B68022B5DD0B9E0FC
:100170006A4B01221A70FA239B00180000F0E4F881
:10018000664B00221A70FA239B00180000F0DCF87E
:10019000634B01221A70FA239B00180000F0D4F878
:1001A0005F4B00221A70FA239B00180000F0CCF875
:1001B0005C4B01221A70FA239B00180000F0C4F86F
:1001C000584B00221A70FA239B00180000F0BCF86C
:1001D000544B01221A70524B01221A704F4B0122CC
:1001E0001A70FA239B00180000F0AEF84D4B002265
:1001F0001A704B4B00221A70484B00221A70FA23D7
:100200009B00180000F0A0F8464B00221A70444BE7
:1002100000221A70414B00221A70FA239B0018002A
:1002200000F092F800237B6065E03C4B01221A70DD
:10023000FA239B00180000F087F8384B00221A7050
:10024000FA239B00180000F07FF8354B01221A704A
:10025000FA239B00180000F077F8314B00221A7047
:10026000FA239B00180000F06FF82E4B01221A7041
:100270002B4B01221A70294B01221A70FA239B0082
:10028000180000F061F8274B00221A70244B00225E
:100290001A70224B00221A70FA239B00180000F0FB
:1002A00053F8204B01221A70FA239B00180000F02B
:1002B0004BF81C4B00221A70FA239B00180000F028
:1002C00043F8184B00221A70154B00221A70134B7A
:1002D00000221A70FA239B00180000F035F8002362
:1002E0007B6008E00D4B01221A70FA239B00180076
:1002F00000F02AF8C04620E700000010808004408B
:10030000C000040004800440FFFBFFFF002000A0A9
:10031000307500000A0000A00B0000A0070000A03C
:10032000080000A0090000A080B500AF054B1B68C5
:10033000002B04D0034B1B685A1E024B1A60C046A8
:10034000BD4680BD0000001080B582B000AF78606F
:10035000064B7A681A60C046044B1B68002BFBD121
:10036000C046C046BD4602B080BDC0460000001079
:1003700080B582B000AF78607A6880235B049A42CF
:1003800001D301230CE07B681B021A0A064B013AD9
:100390001A60064B00221A60054B07221A600023E0
:1003A0001800BD4602B080BD14E000E018E000E097
:1003B00010E000E080B500AF164B1A68154B8021A5
:1003C0000A431A60144B00221A60144B24221A604C
:1003D000134B00221A60124B01221A600D4B1A684F
:1003E0000C4B80218A431A60C0460E4B1B680122C9
:1003F0001340FAD00C4B03221A600C4B00221A60F7
:100400000A4B01221A600A4B02221A60C046BD46FE
:1004100080BDC046388204404080044008800440CB
:10042000448004400C800440708004407480044088
:100430007880044080B584B000AFFFF7BBFF164B57
:10044000FB60164BBB60164A144BD31A7B6007E067
:10045000FA68531CFB60BB68591CB96012781A70AB
:100460007B685A1E7A60002BF2D10E4BBB600E4A9D
:100470000C4BD31A7B6004E0BB685A1CBA600022A4
:100480001A707B685A1E7A60002BF5D1FFF718FEB0
:10049000C046BD4604B080BDB4040000000000109A
:1004A00000000010000000100400001080B500AF34
:0404B000FEE7C0465D
:00000001FF
