:10000000E01F0010551600008D160000911600002C
:1000100000000000000000000000000000000000E0
:100020000000000000000000000000009516000025
:100030000000000000000000991600009D1600005E
:10004000A1160000A5160000A9160000AD160000BC
:10005000B1160000B5160000B9160000BD1600006C
:10006000C1160000C516000081030000CD16000077
:10007000D1160000D5160000D9160000DD160000CC
:10008000E1160000E5160000E9160000ED1600007C
:10009000F1160000F5160000F9160000FD1600002C
:1000A0000117000005170000091700000D170000D8
:1000B0001117000015170000191700001D17000088
:0402FC00FFFFFFFF02
:10030000402292029A1A92467047C046174B002B21
:1003100000D1134B9D46FFF7F3FF00218B460F469C
:100320001348144A121A02F043F90E4B002B00D066
:1003300098470D4B002B00D0984700200021040067
:100340000D000D48002802D00C4800E000BF02F06C
:1003500001FA2000290001F069FC01F0B5FEC04659
:10036000000008000000000000000000E01F001076
:1003700064000010380200100000000000000000BF
:100380000122144BDA60144B1868002808D1A02110
:100390000906C87408758A741A6801321A607047B1
:1003A0001968322905D1A0210020090688740A7530
:1003B000F2E71968642905D1A02100200906087513
:1003C000CA74E9E71A68952AE6D9012252421A60EE
:1003D000E2E7C0460040004064000010F8B580230A
:1003E000114CDB02E26F302713438022E367E36F97
:1003F0000E4E0F4D1343E3672800B76721216E3A75
:1004000000F0C8FB280077671322222100F0C2FB0E
:10041000376728001422232100F0BCFB8022E36F01
:100420009343E367F8BDC0460480044000400440A5
:1004300000C0004010B51F4C0020636ADB051B0F95
:10044000013B0E2B02D81C4A9B0098580322616A7C
:10045000236F1340022B13D0934218D0012B26D1C7
:10046000206C1040033843425841144B404218401E
:10047000134BC018A16F01F0A9F9124C206010BDF8
:100480001F2319400131490001F0A0F9F2E7A268E9
:10049000206C1F211840033843425841074B40420B
:1004A0001840074B0A40C01801325043E2E70448A5
:1004B000E0E7C046008004403C2A000000E548FF19
:1004C000001BB70000000010704710B5044B054A30
:1004D0009360054B054A1A60FFF7F6FF10BDC04652
:1004E0000000000000ED00E000000010001BB7005D
:1004F000431E70B55B184D420C002B40984201D949
:10050000002070BD05225242521A9A42F8D3081DAB
:10051000C01801F0EDFD0028F2D0033423181D406F
:10052000034A2B1F281A58801A802800E9E7C04682
:1005300039300000031F054A198810B5914203D1D4
:100540005B88C01A01F0DEFD10BDC04639300000E6
:100550000A0010B500280BD00023190001F0AAFBF7
:100560000023044A01F0CCFA001C01380028FCD119
:1005700010BDC04600093D004023044A10B5D16FAC
:100580000A200B43D36700F0F9FA10BD0480044041
:1005900070B54024104DEE6F3443EC670124944055
:1005A000220080241E788D00A401002E04D145195C
:1005B0002B5993432B5170BD5B78002B09D18A23B3
:1005C0001B01C91889000A504019035913430351EC
:1005D000F1E78823F4E7C04604800440EFF310817C
:1005E00072B60720064A136883431360054A03382E
:1005F00013698343136130BF81F310887047C0468D
:100600000000024000ED00E010B5EFF3108172B67B
:1006100007230C4C22689A43063B13438C22236029
:10062000094C9200A35883430420A350074B1A6936
:1006300002431A6130BF1A6982431A6181F310883C
:1006400010BDC046000002400080044000ED00E004
:1006500010B5EFF3108172B607230C4C22689A4351
:10066000053B13438C222360094C9200A35883431B
:100670000420A350074B1A6902431A6130BF1A695C
:1006800082431A6181F3108810BDC0460000024009
:100690000080044000ED00E0EFF3108172B60F23FC
:1006A000084802689A430C3B134303600420064B3E
:1006B0001A6902431A6130BF1A6982431A6181F3D1
:1006C000108870470000024000ED00E030B50E4A8F
:1006D000172811D9050001238121183DAB4089005D
:1006E000545823435350002805DB1F2318401E3B5A
:1006F0008340064A136030BD012385218340890071
:10070000545823435350F0E70080044000E100E0D8
:1007100010B5002809DB1F220123024093400B4A39
:10072000D367BFF34F8FBFF36F8F094B172808D9DB
:100730008124A4001A591838012181408A431A5192
:1007400010BD8524A4001A59F6E7C04604E100E074
:100750000080044003688B43036003680B4303601D
:1007600003681942FCD0704700487047001BB7006F
:100770008E23044A9B00D35800209B0601D4024BD1
:100780001868704700800440680000100A4B10B5DC
:10079000186C03231840012807D0984208D0434220
:1007A0005841064B4042184010BDFFF7E1FFFBE700
:1007B000034B1868F8E7C04600800440001BB700F0
:1007C0006800001010B50D4C0020236F032B06D8D5
:1007D000180000F0F1FF10020508FFF7D7FF10BD69
:1007E000074B5868FBE7FFF7D1FF1F22A3681340B0
:1007F00001335843F3E70348F1E7C0460080044063
:1008000068000010001BB7000F4B10B51C680F4BA1
:1008100000201B68E4B2032B06D8180000F0CCFFC0
:1008200012020C0FFFF7A4FF002C03D0210000F0F0
:10083000CDFF0400200010BD054B5868F4E7FFF71A
:10084000C1FFF1E70348EFE7E8800440E08004409F
:1008500068000010001BB70010B5FFF7B3FF0A4B8C
:10086000FF241A681300234022420BD0074A010ECE
:100870001268000222400132FF325A43002301F085
:100880003FF90300180010BD94800440F480044038
:1008900010B5FFF7E1FF10BD10B5FFF7DDFF10BD8C
:1008A00010B5FFF7D9FF10BD10B5072821D800F00B
:1008B00083FF060E2004111720140F4810BDFFF708
:1008C00081FF0E4B996FC9B200F080FFF6E7FFF78A
:1008D00079FFF3E70A4B1868F0E7094B5868EDE732
:1008E000FFF754FF1F22054B9B6813400133584309
:1008F000E4E70020E2E7C046001BB70000800440A8
:10090000680000108E22802370B51F4C9200A15801
:1009100006000B430321A350236C226C8B4313432B
:1009200002791A4813432364FFF714FFFFF72EFFE1
:10093000366801000500300000F048FF144A00232B
:10094000964208D8134A0133964204D80023124A2B
:10095000B2425B4102331F26A168421E324060361C
:10096000B1430A435B0113438E228021A3609200AE
:10097000A3588B43A3500123E2681A42FCD068437A
:10098000064B986070BDC04600800440448004401F
:10099000802FA604C0175302E08B290168000010C5
:1009A0001821074A10B5D36A064C8B43D362E02264
:1009B000054952008B5823408B50044B186010BDE2
:1009C00000400440FFFDFFFF00C000406800001031
:1009D0001821104A10B5936B04008B439363E022F7
:1009E00040200D4952008B5883438B500B4BC03A2B
:1009F000196AFF3A0A438E211A6289005A58203830
:100A00008243DA305A5040000549FFF7A1FD054BFB
:100A10001C6010BD0040044000C000400080044045
:100A200080C3C901680000101821154B10B55A6B1E
:100A300004008A435A639A6BC0208A439A63E02277
:100A4000104952008B5883438B500F49BD380B6AB5
:100A50000A6A834313430D4A1D30A2429241524217
:100A6000520013438E220B6292008B588343DA307C
:100A70008B5040000649FFF76BFD064B1C6010BD14
:100A80000040044000C0004000800440C0E1E40099
:100A900080C3C9016800001070B5F0250D4CC20C70
:100AA000636A6D005B0A2A405B021A43C23D4B0831
:100AB000FF3D013B2B4013438E2263629200A358FB
:100AC0002135AB430002A350000A00F07FFE024B29
:100AD000586070BD008004406800001010B5032409
:100AE0000949020A0B6F23409A420BD0C0B200287A
:100AF00008D10B6F2240A34313430B670348012126
:100B0000FFF728FE10BDC0460080044074800440FA
:100B1000F8B50400FFF756FE114B06001B685C4356
:100B2000211E1BD00021A04218D3210000F04EFE50
:100B30000021012812D80B0022000D003400FF27ED
:100B4000A41A9D41074829020760200E0143200294
:100B500000F0D6FF0121044B384018600800F8BDB2
:100B600094800440F0800440F480044010B50121DA
:100B70000148FFF7EFFD10BDE480044001228240F0
:100B8000034B59689143596059680A435A6070474A
:100B900000800440032310B5FF240B40DB009C4081
:100BA0009A408908890040180168A1430A430260FD
:100BB00010BD002A07D0002904DBE0225200835830
:100BC0008B43835070470029FCDBE0235B00C25855
:100BD0001143C150F6E7890093B24018120D8018F6
:100BE000036070478023054A10B5D16FDB000B43CB
:100BF0000720D367FFF7C2FF10BDC0460480044042
:100C000080231B06044A0360036103620363D36FFE
:100C100002490B40D367704704800440FFFBFFFF8D
:100C200030B5062509014418A4682C40022C01D0D7
:100C3000002B02D080231B061A43425030BDC04611
:100C4000F7B5002501270B4E0B4B34681B6823407A
:100C500001933C4205D0094BAA00D358002B00D089
:100C60009847640802D00135082DF2D1019B33600A
:100C7000F7BDC046F4400050F04000507400001032
:100C80008023264A70B50D00D16F5B000B43040032
:100C9000D3670820FFF772FF78210620AB782A7807
:100CA000DB000B40697849000140F0200B43297AB2
:100CB00040014902014013430B432360EB786979FB
:100CC0001B0149010B4304210B4363600823616846
:100CD0000B436360002A0FD12B79AA791B055205BB
:100CE000134380226168D2020B4313436360802365
:100CF00062681B0313436360EB7900252365084C8E
:100D000029002022200025626562A562E56201F0CB
:100D10004FFC044B2800236370BDC0460480044090
:100D200074000010410C00004268044B0449134356
:100D3000044A4360D36F0B40D3677047040004003C
:100D4000FFFEFFFF0480044010B5082204000021CC
:100D5000013001F02DFC012323700E33237210BDEE
:100D6000F7B51E000B00A033DB00C3185B6804005E
:100D70000193F300C318C1200F25C3278000185822
:100D8000BF002840DB594030800000591D40636897
:100D90009C46042367463B436360632A1CD90123B6
:100DA000019FF6181A00F7408A4002301F4210D007
:100DB000236D13432365AB00E3181A00FC32506027
:100DC0008022920098506368FD3AFF3A9343636033
:100DD000F7BD236D9343EDE70023190000F06AFF90
:100DE0006422002300F08CFEE5E7F7B504004548D7
:100DF0001500066A08AA012012780193072E1CD854
:100E00008B040F009B0F022B18D1F022019B920044
:100E10009B01134032006032D2000B43A218536092
:100E20000122384900204B6A9A4033006033DB00CE
:100E30001A51099B1E6001360E62FEBD0921D94080
:100E4000014205D0019B9901F0239B0019400F43FB
:100E500001239A4219D1236810001342EDD1294988
:100E60008A6A072AE9D89300E3181800ADB2FE3069
:100E700045808020800017431D5233006033DB0023
:100E8000E31801325F608A62CAE7022A26D122682B
:100E900018001A42D1D11B49CA6A072ACDD83B0093
:100EA000102713431F439300E3181800FE304088B7
:100EB0002D042843AC461D00FC356860802080006E
:100EC0001D5A60460543802080001D50330060336A
:100ED000DB00E31801325F60CA62A1E71800042A50
:100EE000ABD122681A42A8D006498A6A072AA4D838
:100EF0009300E3181800FC30456080208000174301
:100F00001D50BAE774000010F0B51D00002387B033
:100F100004930593544B0E001B6A0400023341688E
:100F20000292082B02D9012007B0F0BD4909C9B2CD
:100F30000C98013100F04AFC029B012B08D1626839
:100F40000F3313436360690000F040FC050006E0C6
:100F5000029B002BF7D1290000F038FC451EB27827
:100F6000632A43D9AB1C03930427802104AB2A00D6
:100F700001934901002320000097FFF736FF8021ED
:100F800005AB0500019320000023039A0097490157
:100F9000FFF72BFF2843C6D101221100049D6B46A9
:100FA000A94003911100A7681B7B3B43A3600D9BE5
:100FB00017001D60059D3378A9400D0071789F4092
:100FC0008C46DE0091422ED10299284A002918D180
:100FD000236DA619BB432365A024E400335903996C
:100FE0000B433351B3582B43B3509DE700232800E4
:100FF000190000F05FFE6422002300F081FD0390E1
:10100000B2E7216DA61939432165B1585B00294328
:10101000B15003219940626D8A43614699400B00AB
:101020001343636580E7029900290BD1236DA6194C
:101030003B4323650D4B0399F2581143A022F15015
:10104000D200CFE7216DA619B943A0272165FF0083
:10105000F1595B00294303259D409A40F151616D90
:10106000A9430A4362655FE77400001004050000AD
:10107000064B10B55C6A0123C022A340C90040188A
:10108000920081580B43835010BDC046740000107D
:10109000044A0120536A072B02D81B180020536210
:1010A0007047C04674000010014B586A7047C04634
:1010B0007400001070B501249440094ECB00C31891
:1010C0009D5922002543A0249D51E4001D5949004B
:1010D0002A431A5103238B40826D1343836570BDED
:1010E00004050000F7B50400204D0092012901D04D
:1010F00004291CD1A96A0120072917D880278E004E
:10110000A619BF00F25B4C34944602009A401300CB
:101110006246884013439BB2F353238803439BB238
:101120002380009B19600131A9620020FEBDE96A9D
:1011300001200729FAD880278E00A619BF00F25B8C
:10114000019202009A401304094A88401340019A10
:1011500000041343F35123004C331B881843009BB6
:10116000E06419600131E962DFE7C04674000010F5
:1011700000F0FF0F014B920099507047740000106F
:1011800010B5024B02481B6B984710BD740000104D
:1011900000400050002807DB1F23C02218401E3BE0
:1011A0008340024952008B507047C04600E100E086
:1011B000104B70B505000024984211D12100202267
:1011C0000D4801F0F5F9230003210620082B09D171
:1011D0000A4A3833D16F0A200B43D367FFF7CEFC9E
:1011E0002C6370BD0A0006005A4308329640013352
:1011F0003443EBE7004000A0A80000100480044046
:1012000030B501248C400D4DC4610462A84202D166
:101210000B4D89004B510368D106C917A3432140E8
:101220000B43036011231A4204D08460920703D554
:10123000446130BDC460F9E78461FAE7004000A072
:10124000A8000010F0B50126350000248D40147070
:10125000046847682C403D4203D0002C00D00F3674
:1012600016700669354203D0002C09D01224147080
:10127000074A904203D1074A89008A581A60F0BD94
:101280001478012C01D10234F1E70224EFE7C046C3
:10129000004000A0A800001070B5032407254C43AF
:1012A00013780834A540A340C66AAE433343C362F3
:1012B000036BAB431D005378A3402B43072905D094
:1012C000012495788C40002D0BD023430363064BFB
:1012D000984205D1072903D85268044B8900CA50A7
:1012E00070BDA343F2E7C046004000A0A800001074
:1012F000032330B507254B4308339D40C46A2C4077
:10130000DC401470046B2C40DC405470012423003A
:10131000072906D08C40036B2340CB405C1EA341C1
:10132000DBB29370044B984205D1072903D8034BD5
:101330008900CB58536030BD004000A0A8000010C9
:101340000300806A000E01D0DA6ADA627047012376
:101350008B4010B50468426A234202D11A4200D081
:10136000436210BD0C4BF0B5C3185A4253410022E2
:1013700011000A4DDB009A4201D14162F0BD2C6898
:101380006F6AA446012466469440344202D1274243
:1013900000D021430132EEE700C0FF5F004000A013
:1013A0000C4B70B5984214D100241F260948E1B2B5
:1013B000FFF7CDFF084BE5562800FFF7EBFE002DA9
:1013C00004DB01233540AB40044A13600134082C90
:1013D000ECD170BD004000A0782A000000E100E0E0
:1013E00010B50C00FFF7B3FF064B1C572000FFF7AA
:1013F000D1FE002C05DB1F231C401E3BA340024AEC
:10140000136010BD782A000000E100E00F4B70B5BA
:10141000984219D100241F260D4BE556002D09DBFB
:101420002A000123324093400A4AD367BFF34F8F0B
:10143000BFF36F8FE1B20548FFF789FF0134280041
:10144000FFF7A8FE082CE7D170BDC046004000A001
:10145000782A000004E100E00C4B10B5984213D14B
:101460000B4B5C56002C09DB1F22012322409340CA
:10147000084AD367BFF34F8FBFF36F8F0348FFF75F
:1014800066FF2000FFF786FE10BDC046004000A0AA
:10149000782A000004E100E010B50400FFF7B6FF71
:1014A000084B9C420CD120220021074801F080F813
:1014B0004021064A0A20D36F8B43D367FFF75EFBB8
:1014C00010BDC046004000A0A800001004800440E9
:1014D00010B50A48FFF734FF094B01001B68002BC9
:1014E00001D00020984705480123026811001940E7
:1014F0001A4201D1FFF72BFF10BDC046004000A0EB
:10150000A800001010B50948FFF71AFF084B0100AA
:101510005B68002B01D001209847044803689B07B3
:1015200002D40121FFF713FF10BDC046004000A008
:10153000A800001010B50948FFF702FF084B010092
:101540009B68002B01D002209847044803685B0782
:1015500002D40221FFF7FBFE10BDC046004000A0F0
:10156000A800001010B50948FFF7EAFE084B01007B
:10157000DB68002B01D003209847044803681B0751
:1015800002D40321FFF7E3FE10BDC046004000A0D7
:10159000A800001010B50948FFF7D2FE084B010063
:1015A0001B69002B01D00420984704480368DB0620
:1015B00002D40421FFF7CBFE10BDC046004000A0BE
:1015C000A800001010B50948FFF7BAFE084B01004B
:1015D0005B69002B01D005209847044803689B06EF
:1015E00002D40521FFF7B3FE10BDC046004000A0A5
:1015F000A800001010B50948FFF7A2FE084B010033
:101600009B69002B01D006209847044803685B06BD
:1016100002D40621FFF79BFE10BDC046004000A08B
:10162000A800001010B50948FFF78AFE084B01001A
:10163000DB69002B01D007209847044803681B068C
:1016400002D40721FFF783FE10BDC046004000A072
:10165000A800001072B6074880470749074A084BA0
:101660009B1A03DD043BC858D050FBDC62B605482A
:1016700080470000CB040000F42A000000000010A6
:10168000640000100D03000025480047254800476E
:10169000254800472548004725480047254800477A
:1016A000254800472548004725480047254800476A
:1016B000254800472548004725480047254800475A
:1016C000254800472548004725480047254800474A
:1016D000254800472548004725480047254800473A
:1016E000254800472548004725480047254800472A
:1016F000254800472548004725480047254800471A
:101700002548004725480047254800472548004709
:1017100025480047254800472548004725480047F9
:10172000891600008D160000911600009516000025
:10173000991600009D160000891600008916000009
:10174000891600008916000089160000891600001D
:10175000891600008916000089160000811100001A
:1017600089160000891600008916000089160000FD
:1017700089160000891600008916000089160000ED
:1017800089160000891600008916000089160000DD
:101790008916000089160000D1140000051500000C
:1017A000351500006515000095150000891600002C
:1017B000891600008916000002B4714649084900E4
:1017C000095C49008E4402BC7047C04600224308B1
:1017D0008B4274D303098B425FD3030A8B4244D3F9
:1017E000030B8B4228D3030C8B420DD3FF2209023B
:1017F00012BA030C8B4202D31212090265D0030BFA
:101800008B4219D300E0090AC30B8B4201D3CB03EF
:10181000C01A5241830B8B4201D38B03C01A524131
:10182000430B8B4201D34B03C01A5241030B8B4233
:1018300001D30B03C01A5241C30A8B4201D3CB021E
:10184000C01A5241830A8B4201D38B02C01A524103
:10185000430A8B4201D34B02C01A5241030A8B4206
:1018600001D30B02C01A5241CDD2C3098B4201D31E
:10187000CB01C01A524183098B4201D38B01C01A9C
:10188000524143098B4201D34B01C01A5241030913
:101890008B4201D30B01C01A5241C3088B4201D3C2
:1018A000CB00C01A524183088B4201D38B00C01A6F
:1018B000524143088B4201D34B00C01A5241411A96
:1018C00000D20146524110467047FFE701B50020A3
:1018D00000F0F0F802BDC0460029F7D076E7704767
:1018E00003460B437FD4002243088B4274D3030981
:1018F0008B425FD3030A8B4244D3030B8B4228D322
:10190000030C8B420DD3FF22090212BA030C8B4247
:1019100002D31212090265D0030B8B4219D300E0E7
:10192000090AC30B8B4201D3CB03C01A5241830B6C
:101930008B4201D38B03C01A5241430B8B4201D31C
:101940004B03C01A5241030B8B4201D30B03C01A45
:101950005241C30A8B4201D3CB02C01A5241830ABF
:101960008B4201D38B02C01A5241430A8B4201D3EE
:101970004B02C01A5241030A8B4201D30B02C01A18
:101980005241CDD2C3098B4201D3CB01C01A52417F
:1019900083098B4201D38B01C01A524143098B4208
:1019A00001D34B01C01A524103098B4201D30B01F1
:1019B000C01A5241C3088B4201D3CB00C01A524116
:1019C00083088B4201D38B00C01A524143088B42DB
:1019D00001D34B00C01A5241411A00D20146524174
:1019E000104670475DE0CA0F00D04942031000D393
:1019F0004042534000229C4603098B422DD3030AE8
:101A00008B4212D3FC22890112BA030A8B420CD3F7
:101A1000890192118B4208D3890192118B4204D320
:101A200089013AD0921100E08909C3098B4201D3A0
:101A3000CB01C01A524183098B4201D38B01C01ADA
:101A4000524143098B4201D34B01C01A5241030951
:101A50008B4201D30B01C01A5241C3088B4201D300
:101A6000CB00C01A524183088B4201D38B00C01AAD
:101A70005241D9D243088B4201D34B00C01A524184
:101A8000411A00D20146634652415B10104601D311
:101A90004042002B00D54942704763465B1000D39B
:101AA000404201B5002000F005F802BD0029F8D041
:101AB00016E770477047C046002B15D1002A13D196
:101AC000002906DB01DC002806D00020C0434108C5
:101AD00002E080210906002007B4024801A1401855
:101AE000029003BDD1FFFFFF03B4684601B5029821
:101AF00000F0DAF9019B9E4602B00CBC7047C0466C
:101B0000002B11D1002A0FD1002900D1002802D0CA
:101B10000021C943080007B4024802A140180290FE
:101B200003BDC04691FFFFFF03B4684601B50298AC
:101B300000F0EEF8019B9E4602B00CBC7047C04618
:101B400010B5002903D100F007F8203002E00800AA
:101B500000F002F810BDC0461C2101231B0498426E
:101B600001D3000C10391B0A984201D3000A08392E
:101B70001B09984201D30009043902A2105C4018E5
:101B80007047C04604030202010101010000000089
:101B9000000000000448054B10B5834203D0044BFD
:101BA000002B00D0984710BD6400001064000010A6
:101BB0000000000006480749091A8B10C90FC91810
:101BC00010B5491003D0044B002B00D0984710BD2E
:101BD00064000010640000100000000010B5074C05
:101BE0002378002B09D1FFF7D5FF054B002B02D03E
:101BF000044800E000BF0123237010BDC80000109E
:101C000000000000C82A0000054B10B5002B03D0CF
:101C10000449054800E000BFFFF7CCFF10BDC046F7
:101C200000000000CC000010C82A0000F7B54023D7
:101C3000A02701251C4C3F06E26F01AE1343E3676A
:101C400038003300142200213580FEF7A1FC330058
:101C5000380013220021FEF79BFC330000261222DD
:101C600038000021FEF794FC3E75FE74BE74802798
:101C7000E36FFF003B43E3670C4C69462000FEF72F
:101C8000B1FF0622A36830009343A360FEF70CFE69
:101C90006421FFF79BFD2060A3681D43A560044BF2
:101CA0001F6030BFFDE7C046048004400040004094
:101CB00000E100E0F0B5CE469946030C9C461304C3
:101CC00047461B0C1D000E0061460404240C80B521
:101CD0000700100C4B436543414360432C0CC01874
:101CE00024188C46A34203D980235B029846C4443F
:101CF000494679435643230C2D042D0C891963441E
:101D000024046019C918C0BCB946B046F0BDC0462D
:101D1000F0B557464E464546DE46E0B504000D0098
:101D20009246994683B08B4230D82DD049465046D2
:101D3000FFF706FF290006002000FFF701FF331A16
:101D40009846203B34D49B4653465A4693404246DD
:101D50001F00534693401E00AF423BD8AF4200D114
:101D600079E05B46A41BBD41002B00DA76E000223F
:101D700000230092019301235A46934001930123CB
:101D800042469340009329E08242CFD900220023AB
:101D9000009201930C9B002B01D01C605D600098A9
:101DA000019903B0F0BCBB46B246A946A046F0BDBF
:101DB00042469B4620239B1A5246DA404146130076
:101DC0004A468A40170042461F43534693401E002E
:101DD000AF42C3D900220023009201934346002B57
:101DE000D8D0FB0772081A4346467B080EE0AB4288
:101DF00001D1A2420CD8A41A9D41012024196D41A1
:101E00000021013E24184D41002E06D0AB42EED9F0
:101E1000013E24196D41002EF8D1009801995B46CE
:101E200000196941002B24DB2B005A464446D3405D
:101E30002A00E2401C005B461500002B2ADB26002E
:101E40009E40330026004746BE403200801A99412A
:101E5000009001919EE7A342BCD882E7424620232E
:101E600000219B1A0022009101920122DA40019286
:101E700085E7424620239B1A2A0046469A402300C3
:101E8000F340444613432A00E2401C005B46150021
:101E9000002BD4DA42462F002023260097409B1ABD
:101EA000DE403B003343CDE7F8B5CE46474680B52C
:101EB0009146984604000D0000F014F807000E004B
:101EC00002000B0048464146FFF7F4FE241A8D41FC
:101ED000089B380031001C605D60C0BCB946B0464C
:101EE000F8BDC046F0B5D6464F464646C0B50400DC
:101EF0000D001000190082B0002D00DA87E0002BE1
:101F00000BDB16001F00AB4219D90020002102B0E4
:101F1000E0BCBA46B146A846F0BD002746428F4114
:101F2000AF4204D800D082E0A64200D87FE0002073
:101F300000218FE0002746428F419F42E5D8AF4203
:101F400000D198E00023994639003000FFF7F8FDF2
:101F5000804629002000FFF7F3FD43461B1A9846F0
:101F6000203B00D57CE0310099409A460B003100BF
:101F7000404681400A00AB425FD85CD05146A41A6B
:101F80009D41002900DA93E0002100200126009005
:101F9000019151468E400196414601268E404146B0
:101FA0000096002950D0D90756080E435F084146D5
:101FB000012200230CE0AF4201D1A6420AD8A41BA3
:101FC000BD4124196D410139A4185D41002906D095
:101FD000AF42F0D9013924196D410029F8D1009898
:101FE0000199534600196941002B48DB2E002C0053
:101FF000DE404346DC405346002B50DB34009C401F
:1020000023004446A6403200801A99411EE0002376
:102010006242AB4114001D0000298BDB06000F005B
:10202000994200D971E702D1904200D96DE70123AE
:102030005B42994688E7A142A0D900210020009088
:10204000019141460029AED1009801994B46002BE1
:1020500000D15CE703000C0000215842A14156E783
:10206000424638009A462023310090409B1AD940BE
:1020700003000B437BE7A64200D863E745E74246EF
:1020800020239B1A2A009A40260013004246D6407D
:102090002C001E434346DC405346002BAEDA42463A
:1020A0002023350094409B1ADD4023002B43A8E7F2
:1020B000414620260127761A00200021F740009093
:1020C0000191019768E7C046074B10B50400002B4B
:1020D00002D0002100E000BF044B1B68002B00D0A1
:1020E0009847200000F0A8FC000000002402001027
:1020F00010B5034B0100186800F030F810BDC04661
:102100001400001010B5034B0100186800F052FBDA
:1021100010BDC0461400001070B50F4E0D003168A0
:102120000400002902D100F0EFFA306029002000FD
:1021300000F0EAFA431C03D101256D42280070BD6E
:102140000323C51C9D43A842F8D0291A200000F0A3
:10215000DBFA0130F2D1EFE7E4000010F7B503221B
:10216000CB1C9343083305001F000C2B34D20C27E3
:10217000B94233D8280000F071F8374E33681C009C
:10218000002C2FD139002800FFF7C6FF0400431CA4
:102190005FD134680094009B002B4AD1002C52D0B0
:1021A00023682800E3180099019300F0ADFA019B21
:1021B000834248D123682800FF1A3900FFF7ACFF9B
:1021C000013040D02368DB19236033685A68002A45
:1021D00033D1009B336019E0002BC9DA0C232B604C
:1021E0000020FEBD2168C91B20D40B290AD9E219A1
:1021F0002760A34204D1326063681160536005E038
:102200005A60F9E76268A3420ED13260280000F0FC
:102210002DF8200007220B30231D9043C21A98424C
:10222000DFD01B1AA350DCE75A60EFE72300646895
:10223000A6E7009C63680093ADE71A005B68A342C1
:10224000FBD10023DAE70C2328002B6000F00EF806
:10225000C6E70760DAE7C046E800001010B502489C
:1022600000F0A1FA10BDC0463002001010B50248BF
:1022700000F09FFA10BDC04630020010002310B5D8
:10228000040003604360836081814366C28103610F
:1022900043618361190008225C3000F089F90B4B1F
:1022A000246263620A4BA3620A4BE3620A4B236314
:1022B0000A4B9C4205D00A4B9C4202D0094B9C42DF
:1022C00003D12000583000F06AFA10BD1525000037
:1022D0004125000079250000A5250000EC00001034
:1022E00054010010BC01001010B5034A0349044812
:1022F00000F0F4F810BDC046080000105529000099
:102300001800001041680B4B10B50400994201D031
:1023100000F020FBA168084B994202D0200000F099
:1023200019FBE168054B994202D0200000F012FB36
:1023300010BDC046EC00001054010010BC0100109C
:102340004B6E10B5DB0705D48B899B0502D4886DD5
:1023500000F029FA002010BD4B6E10B5DB0705D444
:102360008B899B0502D4886D00F023FA002010BDF4
:1023700010B5094B094A04211A6009480022FFF7E9
:102380007DFF012209210748FFF778FF0222122171
:102390000548FFF773FF10BD24020010E92200007A
:1023A000EC00001054010010BC01001010B50248F0
:1023B00000F0F9F910BDC0463302001010B5024814
:1023C00000F0F7F910BDC04633020010F8B5070061
:1023D000FFF7ECFF244B1B68002B01D1FFF7C8FF70
:1023E000224EB4687368013B0FD53568002D38D193
:1023F000D62138004900FFF7B1FE041E26D1306017
:10240000FFF7DCFF0C233B601CE00C22A55E002DD7
:102410001AD12000164B5830E360656600F0BFF912
:10242000FFF7CCFF2000082229002560A560656029
:1024300025616561A5615C3000F0BAF86563A5634C
:10244000A564E5642000F8BD6834CCE70423D022FD
:10245000056043600C302900A060520000F0A8F82D
:1024600034603668BDE7C046240200100800001042
:102470000100FFFF10B50400FFF798FF236A002B4F
:1024800002D0FFF79BFF10BD044B2362044B1B6877
:10249000002BF6D1FFF76CFFF3E7C04605230000E1
:1024A0002402001010B5FFF781FF0020024A034903
:1024B00000F014F810BDC0460800001041230000D1
:1024C00010B5044A0449002000F008F8FFF776FF31
:1024D00010BDC0460800001059230000F7B51400D5
:1024E000002600900191A5686768013F04D5246823
:1024F000002CF8D13000FEBDAB89012B08D90E228B
:10250000AB5E013304D029000098019B9847064335
:102510006835EAE770B50C000E25495F00F0E0F879
:10252000002803DB636D1B18636570BDA389024A35
:102530001340A381F9E7C046FFEFFFFF002070477B
:10254000F8B51F008B8905000C001600DB0505D5CA
:102550000E23C95E0022022300F0AEF8A389054ACB
:1025600028001340A38132000E23E15E3B0000F0FF
:10257000DDF8F8BDFFEFFFFF70B50C000E25495FD9
:1025800000F09AF8A389421C03D1054A1340A381A5
:1025900070BD802252011343A3816065F8E7C046F5
:1025A000FFEFFFFF10B50E23C95E00F009F810BD64
:1025B00003008218934200D1704719700133F9E784
:1025C000002370B5064D040008002B6000F006FAE9
:1025D000431C03D12B68002B00D0236070BDC04684
:1025E00028020010334B70B51B68040083425FD093
:1025F000C369002B27D0DB68002B0DD00025E369D1
:10260000DB685959002918D10435802DF7D1E369C9
:102610002000D96800F0CEF8E3691968002902D0DB
:10262000200000F0C7F8E3699D68002D0BD0290059
:1026300020002D6800F0BEF8F7E70E68200000F0DB
:10264000B9F83100DEE76169002902D0200000F00E
:10265000B1F8E169002902D0200000F0ABF8216B4D
:10266000002902D0200000F0A5F8616B002902D0FB
:10267000200000F09FF8A16B002902D0200000F09C
:1026800099F8A16C002902D0200000F093F8616C49
:10269000002902D0200000F08DF8E16A002902D064
:1026A000200000F087F8236A002B01D02000984713
:1026B00070BDC0461400001070B504000800110081
:1026C0001A000023054D2B6000F090F9431C03D144
:1026D0002B68002B00D0236070BDC046280200107C
:1026E00070B50400080011001A000023054D2B608E
:1026F00000F084F9431C03D12B68002B00D0236029
:1027000070BDC04628020010002370B5064D0400BD
:1027100008002B6000F07AF9431C03D12B68002BD2
:1027200000D0236070BDC0462802001070B50400C0
:10273000080011001A000023054D2B6000F074F909
:10274000431C03D12B68002B00D0236070BDC04612
:102750002802001070B500260C4C0D4D641BA4100F
:10276000A64209D1002600F0B1F90A4C0A4D641BBB
:10277000A410A64205D170BDB300EB5898470136AE
:10278000EEE7B300EB5898470136F2E7EC2A000079
:10279000EC2A0000F02A0000EC2A00007047704785
:1027A000704770477047704701207047012070479D
:1027B0007047704770B505000C1E10D0043C2368AC
:1027C000002B00DAE4182800FFF748FD1D4A1368C3
:1027D000002B05D1636014602800FFF747FD70BD32
:1027E000A34208D9206821188B42F3D119685B688D
:1027F00009182160EEE71A005B68002B01D0A342A4
:10280000F9D911685018A0420BD120680918501846
:1028100011608342E0D118685B6841181160536011
:10282000DAE7A04202D90C232B60D5E720682118F3
:102830008B4203D119685B6809182160636054609A
:10284000CAE7C046E8000010F7B50C228B5E050011
:102850000C001A0756D44A68002A02DC0A6C002AC7
:102860004EDDE76A002F4BD0002280202E682A60C0
:102870001A004001216A0240034233D0626DA389ED
:102880005B0706D56368D21A636B002B01D0236CFB
:10289000D21A00232800E76A216AB847A289431C9C
:1028A00006D129681D2946D8294BCB40DB0742D5E4
:1028B0000023636023692360D20405D5431C02D141
:1028C0002B68002B00D16065616B2E60002917D04A
:1028D00023004433994202D02800FFF76BFF002306
:1028E00063630DE001232800B8470200431CC6D1F2
:1028F0002B68002BC3D01D2B01D0162B1AD12E60B4
:1029000000201EE00E69002EFAD00F680E60BA1B80
:10291000019200229B0700D14A69A260019B002B13
:10292000EEDDA36A32001F002800019B216AB84730
:10293000002807DCA2894023012013431BB2A38196
:102940004042FEBD019B36181B1A0193E6E7C046C4
:10295000010040200B6970B505000C00002B02D16E
:102960000025280070BD002804D0036A002B01D187
:10297000FFF780FD0C22A35E002BF1D0626ED20720
:1029800004D49B0502D4A06DFFF70DFF28002100A1
:10299000FFF75AFF636E0500DB07E2D4A3899B05AE
:1029A000DFD4A06DFFF705FFDBE70000010010B5E5
:1029B000002805D1054A06490648FFF78FFD10BDDE
:1029C000054B1868FFF7C6FFF9E7C046080000107E
:1029D0005529000018000010140000105822012092
:1029E000014B40421A607047280200105822012013
:1029F000014B40421A607047280200105822012003
:102A0000014B40421A60704728020010044A03003C
:102A10001068002802D0C318136070470148FAE715
:102A2000340200103802001058220120014B4042AD
:102A30001A60704728020010FEE7C046C027090050
:102A400090051000C05C1500F0B31A00200B2000A8
:102A5000009F2400E0322900C0C62D0050973100AD
:102A6000E06735007038390000093D00401640002D
:102A700080234300C030460018191A1B1C1D1E1F5E
:102A80003E410C4111412741364103410641154168
:102A90000F410E41264113412941024119410A418A
:102AA0000B4100003E410C41114127413641034199
:102AB000064115410F410E41264113412941024172
:102AC00019410A410B41000000000000F8B5C04662
:102AD000F8BC08BC9E467047F8B5C046F8BC08BCB8
:042AE0009E46704757
:082AE4001CD8FF7F0100000077
:042AEC00091C0000C1
:042AF000DD1B0000EA
:102AF400001BB700000000000000000003000000FD
:102B0400EC0000101800001000000000EC000010A1
:102B140054010010BC01001000000000000000007F
:102B240000000000000000000000000000000000A1
:102B34000000000000000000000000000000000091
:102B44000000000000000000000000000000000081
:042B5400000000007D
:04000003000016558E
:00000001FF
