:10000000E01F001081030000B9030000BD030000E1
:1000100000000000000000000000000000000000E0
:10002000000000000000000000000000C10300000C
:100030000000000000000000C5030000010B0000EC
:10004000CD030000D1030000D5030000D903000058
:10005000DD030000E1030000E5030000E903000008
:10006000ED030000F1030000F5030000F9030000B8
:10007000FD03000001040000050400000904000065
:100080000D04000011040000150400001904000014
:100090001D040000210400002504000029040000C4
:1000A0002D04000031040000350400003904000074
:1000B0003D04000041040000450400004904000024
:0402FC00FFFFFFFF02
:10030000402292029A1A92467047C046174B002B21
:1003100000D1134B9D46FFF7F3FF00218B460F469C
:100320001348144A121A03F0C9FB0E4B002B00D0DD
:1003300098470D4B002B00D0984700200021040067
:100340000D000D48002802D00C4800E000BF03F06B
:1003500087FC2000290000F0E5FB03F03BF9C046D4
:10036000000008000000000000000000E01F001076
:1003700064000010080200100000000000000000EF
:1003800072B6074880470749074A084B9B1A03DDA6
:10039000043BC858D050FBDC62B6054880470000DB
:1003A0002D13000028410000000000106400001020
:1003B0000D03000025480047254800472548004711
:1003C000254800472548004725480047254800475D
:1003D000254800472548004725480047254800474D
:1003E000254800472548004725480047254800473D
:1003F000254800472548004725480047254800472D
:10040000254800472548004725480047254800471C
:10041000254800472548004725480047254800470C
:1004200025480047254800472548004725480047FC
:1004300025480047254800472548004725480047EC
:10044000254800472548004725480047B5030000D8
:10045000B9030000BD030000C1030000C503000094
:10046000010B0000B5030000B5030000B503000058
:10047000B5030000B5030000B5030000B50300009C
:10048000CD250000B5250000B5030000B503000030
:10049000B5030000B5030000B5030000B50300007C
:1004A000B5030000B5030000B5030000B50300006C
:1004B000B5030000B5030000E5250000B50300000A
:1004C000B5030000B5030000B5030000B50300004C
:1004D000B5030000B5030000B5030000B50300003C
:1004E000B503000002B4714649084900095C49009F
:1004F0008E4402BC7047C04603B4714649084000B0
:100500004900095E49008E4403BC7047002243083D
:100510008B4274D303098B425FD3030A8B4244D3CB
:10052000030B8B4228D3030C8B420DD3FF2209020D
:1005300012BA030C8B4202D31212090265D0030BCC
:100540008B4219D300E0090AC30B8B4201D3CB03C2
:10055000C01A5241830B8B4201D38B03C01A524104
:10056000430B8B4201D34B03C01A5241030B8B4206
:1005700001D30B03C01A5241C30A8B4201D3CB02F1
:10058000C01A5241830A8B4201D38B02C01A5241D6
:10059000430A8B4201D34B02C01A5241030A8B42D9
:1005A00001D30B02C01A5241CDD2C3098B4201D3F1
:1005B000CB01C01A524183098B4201D38B01C01A6F
:1005C000524143098B4201D34B01C01A52410309E6
:1005D0008B4201D30B01C01A5241C3088B4201D395
:1005E000CB00C01A524183088B4201D38B00C01A42
:1005F000524143088B4201D34B00C01A5241411A69
:1006000000D20146524110467047FFE701B5002075
:1006100000F0F0F802BDC0460029F7D076E7704739
:1006200003460B437FD4002243088B4274D3030953
:100630008B425FD3030A8B4244D3030B8B4228D3F4
:10064000030C8B420DD3FF22090212BA030C8B421A
:1006500002D31212090265D0030B8B4219D300E0BA
:10066000090AC30B8B4201D3CB03C01A5241830B3F
:100670008B4201D38B03C01A5241430B8B4201D3EF
:100680004B03C01A5241030B8B4201D30B03C01A18
:100690005241C30A8B4201D3CB02C01A5241830A92
:1006A0008B4201D38B02C01A5241430A8B4201D3C1
:1006B0004B02C01A5241030A8B4201D30B02C01AEB
:1006C0005241CDD2C3098B4201D3CB01C01A524152
:1006D00083098B4201D38B01C01A524143098B42DB
:1006E00001D34B01C01A524103098B4201D30B01C4
:1006F000C01A5241C3088B4201D3CB00C01A5241E9
:1007000083088B4201D38B00C01A524143088B42AD
:1007100001D34B00C01A5241411A00D20146524146
:10072000104670475DE0CA0F00D04942031000D365
:100730004042534000229C4603098B422DD3030ABA
:100740008B4212D3FC22890112BA030A8B420CD3CA
:10075000890192118B4208D3890192118B4204D3F3
:1007600089013AD0921100E08909C3098B4201D373
:10077000CB01C01A524183098B4201D38B01C01AAD
:10078000524143098B4201D34B01C01A5241030924
:100790008B4201D30B01C01A5241C3088B4201D3D3
:1007A000CB00C01A524183088B4201D38B00C01A80
:1007B0005241D9D243088B4201D34B00C01A524157
:1007C000411A00D20146634652415B10104601D3E4
:1007D0004042002B00D54942704763465B1000D36E
:1007E000404201B5002000F005F802BD0029F8D014
:1007F00016E770477047C046844608006146FFE729
:100800001FB502F03DFA002801D40021C8421FBDE7
:1008100010B502F0C3F94042013010BD10B502F02E
:100820002FFA002801DB002010BD012010BDC046BA
:1008300010B502F025FA002801DD002010BD0120CE
:1008400010BDC04610B502F0D1F9002801DC00202F
:1008500010BD012010BDC04610B502F0C7F9002838
:1008600001DA002010BD012010BDC046002B15D1BB
:10087000002A13D1002906DB01DC002806D0002065
:10088000C043410802E080210906002007B4024865
:1008900001A14018029003BD5DFFFFFF03B468464D
:1008A00001B5029801F0BCFF019B9E4602B00CBC52
:1008B0007047C046002B11D1002A0FD1002900D16A
:1008C000002802D00021C943080007B4024802A151
:1008D0004018029003BDC0461DFFFFFF03B46846E9
:1008E00001B5029801F0D0FE019B9E4602B00CBCFF
:1008F0007047C0461C2101231B04984201D3000C01
:1009000010391B0A984201D3000A08391B09984282
:1009100001D30009043902A2105C40187047C04698
:1009200004030202010101010000000000000000B8
:1009300010B5002903D1FFF7DDFF203002E00800E9
:10094000FFF7D8FF10BDC0460448054B10B58342E1
:1009500003D0044B002B00D0984710BD640000105A
:10096000640000100000000006480749091A8B10B7
:10097000C90FC91810B5491003D0044B002B00D083
:10098000984710BD640000106400001000000000D3
:1009900010B5074C2378002B09D1FFF7D5FF054B85
:1009A000002B02D0044800E000BF0123237010BDDB
:1009B0006400001000000000FC400000054B10B572
:1009C000002B03D00449054800E000BFFFF7CCFF2F
:1009D00010BDC0460000000068000010FC40000090
:1009E000002A02D1014B01321A70704784000010B6
:1009F0000422034B99681142FCD0D8617047C0466D
:100A000000400640F0B5070089B002AC0D001600AA
:100A100000211022200003F051F801AB1F70069353
:100A2000012307930023A580064D220031000648CC
:100A30002B7001F097FB2B78002BFCD000232B7040
:100A400009B0F0BD84000010000005408E23F7B50A
:100A50000125022100261A4C9B00E2586846AA4351
:100A6000E250E258174F8A43E250174B1E606B4624
:100A70001E71164B009300F075FEC020800000F040
:100A80005DFF0323FF223B60A36F93432B43A367C8
:100A900000F000FC03233B602300C822E4331E6007
:100AA00004341D605A60E36F7F352B43E3672E21CA
:100AB0000748AE3A00F09EFFE36FAB43E367F7BD34
:100AC00000800440E080044040800440008793039D
:100AD00000C000408023074ADB01D16F0B43D3677E
:100AE0000822054B1A60054B053A1A6202321A6059
:100AF0007047C04604800440948004400040064093
:100B0000034B1A68002A02D01A68013A1A6070472B
:100B100080000010024B18601A68002AFCD1704750
:100B2000800000108022F0B5824BD201D96F95B0C1
:100B30000A43DA672022D96F0A43DA6700F0EEF938
:100B4000FFF784FFFFF7C6FF7B4B7C4A7C481A60A7
:100B500000F070FBA0228023802112069B01D05858
:100B600049020143D1508021D05849010143D1505D
:100B7000FA21744B89001868FFF7C8FC80230138FC
:100B80005B04984200D395E0C0216F4A090650608B
:100B90006E480024036A1B021B0A0B4303620723EF
:100BA000946003A8136001F009F9694B694A6A4827
:100BB00003A9049301F078F92300684A664806A95E
:100BC00001F0A2FA10236A460120138102A9022231
:100BD00006AB00F0D9F8022206AB01A9012000F013
:100BE000F9F85F4800F026FB01A800F079F91E2310
:100BF0006A460320138102A9022206AB00F0C4F862
:100C0000022206AB01A9032000F0E4F8554800F0E9
:100C100011FB554800F00EFB01A800F007F9534CFA
:100C2000200000F007FB1C236A461381022206AB5A
:100C3000100002A900F0A8F8022206AB100001A9DA
:100C400000F0C8F84A4800F0F5FA01A800F0EEF804
:100C5000200000F0EFFA474800F0ECFA022206AB61
:100C600001A9002000F0B6F801A800F02BF94249D4
:100C7000A024071CFFF7E6FD2406051E3F4E1AD0F0
:100C8000002006AB022201A9207300F0A3F8300077
:100C900000F0D0FA01A800F0C9F8394800F0CAFA0B
:100CA00001A800F0DFF8FA204000FFF733FF01232E
:100CB00023731FE0FEE73349381CFFF7AFFD002820
:100CC0001DD006AB022201A92800257400F082F88D
:100CD000300000F0AFFA01A800F0A8F8284800F0B2
:100CE000A9FA01A800F0BEF8FA204000FFF712FFB1
:100CF00001232374FA204000FFF70CFFAEE706AB98
:100D0000022201A92074207300F064F8300000F082
:100D100091FA01A800F08AF8194800F08BFA01A8AE
:100D200000F0A0F8FA204000FFF7F4FE012323743E
:100D3000BEE7C046048004408C000010F1090000AA
:100D4000803F00000400001010E000E000ED00E033
:100D5000A0860100001BB70000000540E10900006B
:100D6000963F0000AC3F0000C33F0000D83F0000AA
:100D7000EA3F0000FF3F00000000F0411E4000007D
:100D8000214000000000E041F0B587B014000700EA
:100D90000E000822002168461D0002F08FFE482345
:100DA0006A469380473B039300230594074C290030
:100DB000074802970496237001F0D4F92378002B9A
:100DC000FCD00023237007B0F0BDC04684000010A3
:100DD0000000054030B50C001900114B87B000250C
:100DE00001930123029005920E486A4603930095F1
:100DF000049401F0B7F90C4B1D70A8420DD11A787C
:100E0000002AFCD0002260781A7023780002184370
:100E100040BA80B2400907B030BD01204042FAE735
:100E200048000100000005408400001010B50400D7
:100E30000178094800F0FEF97D21637807485B09D5
:100E40005943637000F0F6F96378002B02D104482F
:100E500000F0F0F910BDC0462A4000002E4000000E
:100E60003140000070B50378407800021843C0BAE2
:100E7000401102F073FAF821890501F049FF0E498B
:100E800001F046FF8421C90501F0E8FC051C02F0D1
:100E900045FA04B2200002F061FA011C281C02F09D
:100EA00077F8064901F034FF01F0D6FB210082B249
:100EB000034800F0BFF970BD6666E63F00007A4463
:100EC0003440000010B50378407800021843C0BADF
:100ED000401102F043FAF821890501F019FF10BD15
:100EE000182310B5027809481A420BD00823134082
:100EF000D20603D40648002B04D110BD0548002BB0
:100F000000D0054800F096F9F7E7C04648400000D9
:100F1000594000006A4000007B400000F8B5802383
:100F2000164CDB02E26F0026134380221100E367B8
:100F3000E36F134F134D1343E36728003E627F3A7C
:100F4000490100F066FD80212800FE6101220901AF
:100F500000F05FFD3023320028007B64012100F0A7
:100F600049FD302331003B612800042200F042FD9E
:100F70008022E36F9343E367F8BDC04604800440DA
:100F80000040044000C0004070470000030010B55E
:100F90000800002B01D0984710BD044A1368002BAD
:100FA000FAD0591C11601870F6E7C046880000108E
:100FB00010B5034B01001868FFF7E8FF10BDC046ED
:100FC0008C000010F0B50E00150091B00190317842
:100FD000002900D114E1252905D001360198FFF739
:100FE000D5FF2F00C4E07178302916D10591B17872
:100FF000F31C002200922A291BD000220A2003920F
:101000000A00303A1E00092A1CD8039A424352189B
:10101000303A197803920133F2E72D2903D02022C8
:10102000B31C0592E5E72022B1780592F31C1E3A25
:10103000E0E704CD002A02DA022152420091197839
:1010400003925E1C2E2971D131782A290DD00024FB
:101050000A22731C080030381E00092808D854439F
:101060006418303C19780133F4E710CD71780236FA
:101070006C2905D10422009B31781343009301367B
:10108000002900D1BCE07829A8D86E2951D863295D
:1010900068D062D8582900D1A3E0022302936229C4
:1010A0009CD12B682F1D642906D1002B04DA012264
:1010B00000985B421043009006930723782900D1E3
:1010C00027230025DBB2079306980299FFF7A4FABD
:1010D000069ACBB20690092902D90799CB18DBB240
:1010E000303308A96B54029B6C1C934202D8202C0D
:1010F0007BD11F25009BDB0703D52D2308AA1355A1
:10110000AC1C009B25009B0776D5013C08ABE15C3D
:101110000198FFF73BFF002CF7D1039BAB4227D987
:1011200020210198FFF732FF0135F6E701246442E0
:101130009EE708006F38092800D94FE7FFF7DCF970
:1011400053004EFF4EFF4EFF1A004EFF0A004EFFA7
:101150004EFF51000A230293A3E70A230293642956
:101160009FD03BE72F0002CF0198C9B2FFF70EFFD7
:101170003D002CE72F0020CF002D00D1214D002C69
:1011800003DB049BA34200D904940223009A1A4073
:101190000292049B01330093029B002B11D02C1967
:1011A0002978002901D0A54216D1039B049A9342C5
:1011B000DED920210198FFF7E9FE049B0133049357
:1011C000F3E7049B039A9342E9D205990198FFF74C
:1011D000DDFE009B0493DCE701980135FFF7D6FEA6
:1011E000DEE71023B7E70823B5E725006CE705998C
:1011F0000198FFF7CBFE0135039BAB42F7D884E79C
:1012000011B0F0BD1D40000070B505000C00217844
:10121000002900D170BD28000134FFF7B7FEF6E7C2
:1012200010B5034B01001868FFF7EEFF10BDC04674
:101230008C0000100FB407B5054B04AA02CA186849
:101240000192FFF7BFFE03B008BC04B01847C046C8
:101250008C0000100EB403B503AA02CA0192FFF776
:10126000B1FE02B008BC03B0184700000EB417B5B9
:10127000074C05AA02CA206000200192FFF7A2FED7
:10128000002322682360137017BC08BC03B0184702
:101290008800001010B51F4C0020636ADB051B0F8F
:1012A000013B0E2B02D81C4A9B0098580322616A0E
:1012B000236F1340022B13D0934218D0012B26D159
:1012C000206C1040033843425841144B40421840B0
:1012D000134BC018A16FFFF719F9124C206010BD15
:1012E0001F23194001314900FFF710F9F2E7A26806
:1012F000206C1F211840033843425841074B40429D
:101300001840074B0A40C01801325043E2E7044836
:10131000E0E7C046008004408C40000000E548FF44
:10132000001BB700040000107047000010B5044B0C
:10133000044A9360044B054A1A60FFF7F5FF10BD9D
:101340000000000000ED00E004000010001BB700EA
:10135000431E70B55B184D420C002B40984201D9DA
:10136000002070BD05225242521A9A42F8D3081D3D
:10137000C01802F043F90028F2D0033423181D40AE
:10138000034A2B1F281A58801A802800E9E7C04614
:1013900039300000031F054A198810B5914203D166
:1013A0005B88C01A02F034F910BDC0463930000025
:1013B0000A0010B500280BD00023190001F01EF917
:1013C0000023044AFFF776FA001C01380028FCD1FC
:1013D00010BDC04600093D004023044A10B5D16F3E
:1013E0000A200B43D36700F0F9FA10BD04800440D3
:1013F00070B54024104DEE6F3443EC6701249440E7
:10140000220080241E788D00A401002E04D14519ED
:101410002B5993432B5170BD5B78002B09D18A2344
:101420001B01C91889000A5040190359134303517D
:10143000F1E78823F4E7C04604800440EFF310810D
:1014400072B60720064A136883431360054A0338BF
:1014500013698343136130BF81F310887047C0461E
:101460000000024000ED00E010B5EFF3108172B60D
:1014700007230C4C22689A43063B13438C222360BB
:10148000094C9200A35883430420A350074B1A69C8
:1014900002431A6130BF1A6982431A6181F31088CE
:1014A00010BDC046000002400080044000ED00E096
:1014B00010B5EFF3108172B607230C4C22689A43E3
:1014C000053B13438C222360094C9200A3588343AD
:1014D0000420A350074B1A6902431A6130BF1A69EE
:1014E00082431A6181F3108810BDC046000002409B
:1014F0000080044000ED00E0EFF3108172B60F238E
:10150000084802689A430C3B134303600420064BCF
:101510001A6902431A6130BF1A6982431A6181F362
:10152000108870470000024000ED00E030B50E4A20
:10153000172811D9050001238121183DAB408900EE
:10154000545823435350002805DB1F2318401E3BEB
:101550008340064A136030BD012385218340890002
:10156000545823435350F0E70080044000E100E06A
:1015700010B5002809DB1F220123024093400B4ACB
:10158000D367BFF34F8FBFF36F8F094B172808D96D
:101590008124A4001A591838012181408A431A5124
:1015A00010BD8524A4001A59F6E7C04604E100E006
:1015B0000080044003688B43036003680B430360AF
:1015C00003681942FCD0704700487047001BB70001
:1015D0008E23044A9B00D35800209B0601D4024B63
:1015E0001868704700800440980000100A4B10B53E
:1015F000186C03231840012807D0984208D04342B2
:101600005841064B4042184010BDFFF7E1FFFBE791
:10161000034B1868F8E7C04600800440001BB70081
:101620009800001010B50D4C0020236F032B06D836
:101630001800FEF757FF10020508FFF7D7FF10BD8F
:10164000074B1868FBE7FFF7D1FF1F22A368134081
:1016500001335843F3E70348F1E7C04600800440F4
:1016600094000010001BB7000F4B10B51C680F4B07
:1016700000201B68E4B2032B06D81800FEF732FFE7
:1016800012020C0FFFF7A4FF002C03D02100FEF77D
:101690003DFF0400200010BD054B1868F4E7FFF77C
:1016A000C1FFF1E70348EFE7E8800440E080044031
:1016B00094000010001BB70010B5FFF7B3FF0A4BF2
:1016C000FF241A681300234022420BD0074A010E60
:1016D0001268000222400132FF325A430023FFF712
:1016E000E9F80300180010BD94800440F480044021
:1016F00010B5FFF7E1FF10BD10B5FFF7DDFF10BD1E
:1017000010B5FFF7D9FF10BD10B5072820D8FEF798
:10171000E9FE060E1F0411161F140E4810BDFFF738
:1017200081FF0D4B996FC9B2FEF7F0FEF6E7FFF7A8
:1017300079FFF3E7094B1868F0E7094BFBE7FFF780
:1017400055FF1F22044B9B68134001335843E5E7C4
:101750000020E3E7001BB700008004409800001061
:10176000940000108E22802370B51F4C9200A15867
:1017700006000B430321A350236C226C8B431343BD
:1017800002791A4813432364FFF714FFFFF72EFF73
:101790003668010005003000FEF7B8FE144A002349
:1017A000964208D8134A0133964204D80023124ABD
:1017B000B2425B4102331F26A168421E32406036AE
:1017C000B1430A435B0113438E228021A360920040
:1017D000A3588B43A3500123E2681A42FCD068430C
:1017E000064B186070BDC046008004404480044031
:1017F000802FA604C0175302E08B2901900000102F
:101800001821074A10B5D36A064C8B43D362E022F5
:10181000054952008B5823408B50044B186010BD73
:1018200000400440FFFDFFFF00C000409800001092
:101830001821104A10B5936B04008B439363E02288
:1018400040200D4952008B5883438B500B4BC03ABC
:10185000196AFF3A0A438E211A6289005A582038C1
:101860008243DA305A5040000549FFF7A1FD054B8D
:101870001C6010BD0040044000C0004000800440D7
:1018800080C3C901980000101821154B10B55A6B80
:1018900004008A435A639A6BC0208A439A63E02209
:1018A000104952008B5883438B500F49BD380B6A47
:1018B0000A6A834313430D4A1D30A24292415242A9
:1018C000520013438E220B6292008B588343DA300E
:1018D0008B5040000649FFF76BFD064B1C6010BDA6
:1018E0000040044000C0004000800440C0E1E4002B
:1018F00080C3C9019800001070B5F0250D4CC20CD2
:10190000636A6D005B0A2A405B021A43C23D4B08C2
:10191000FF3D013B2B4013438E2263629200A3588C
:101920002135AB430002A350000AFEF7EFFD024B46
:10193000186070BD008004409400001010B50324AE
:101940000949020A0B6F23409A420BD0C0B200280B
:1019500008D10B6F2240A34313430B6703480121B7
:10196000FFF728FE10BDC04600800440748004408C
:10197000F8B50400FFF756FE114B06001B685C43E8
:10198000211E1BD00021A04218D32100FEF7BEFD6E
:101990000021012812D80B0022000D003400FF277F
:1019A000A41A9D41074829020760200E0143200226
:1019B000FEF780FF0121044B384018600800F8BD95
:1019C00094800440F0800440F480044010B501216C
:1019D0000148FFF7EFFD10BDE48004400122824082
:1019E000034B59689143596059680A435A607047DC
:1019F00000800440032310B5FF240B40DB009C4013
:101A00009A408908890040180168A1430A4302608E
:101A100010BD002A07D0002904DBE02252008358C1
:101A20008B43835070470029FCDBE0235B00C258E6
:101A30001143C150F6E7890093B24018120D801887
:101A4000036070470300012258681042FCD0502206
:101A50005A60704770B5040008780022C31F012B3C
:101A600002D88A6853425A41102563682B420CD031
:101A7000524A656000230D6B0B705133E360002DFB
:101A80002CD020004B6BA84728E040252B4202D0E9
:101A90004B4A6560EEE7DD0700D481E01B075B0F72
:101AA000DD1E012D06D8002A00D07DE00423454A22
:101AB0002362DFE70138072800D973E0FEF712FD43
:101AC000213A4B517204697C8B8B0A695B00002AB6
:101AD00005D0A36201230B700223236270BD8A7FAD
:101AE0008868002A05D1A36207230028F3D0053BAC
:101AF000F1E701221343A36207230028EBD0033B45
:101B0000E9E7022B4ED10A69486A801A0818007D5D
:101B1000013AA062012020620A61002ADED18A68AF
:101B2000002A05D08A7F824200D104330B70D5E7AA
:101B30000723FBE7022B35D1CB685A1CCA601B7800
:101B4000A362012323628B68013B8B60002B15D1BC
:101B500007330B7012E0012B24D1A26A23620333F6
:101B6000E4E7012B1ED1CA68A06A551CCD60107035
:101B70008A68013A8A60002A04D023624B680133E4
:101B80004B60ABE704238A691A4200D12362082321
:101B9000DFE704238A691A420ED12362DB18C5E706
:101BA000094A67E7094A65E706380228FAD8FEF7C6
:101BB000A3FC8BFFF0FF030000225BE7CD190000C0
:101BC000D0190000CA190000C8190000D11900007E
:101BD0008B6A70B50A7115000C008A68002B1CD046
:101BE0002A421AD0CA6A9847631D6169A269D87FE0
:101BF00000280BD12069002801D0002904D1E16818
:101C0000002903D0002A01D00122DA77023DFD230A
:101C10002A001A401D4200D1E26170BD036810B570
:101C2000DB0703D5024B1B68984710BD014BFAE751
:101C3000A00000109C000010F8B5802746683F0205
:101C40008B6905000C004B693E4203D04022FFF730
:101C5000BFFF6F60F30544D5C0223300D2001340AC
:101C6000164237D16B6CDAB26271DB071DD563693E
:101C70002269002A01D0002B04D102222100280071
:101C8000FFF7A6FF63692269002A01D0002B07D164
:101C9000022301222B6421002800FFF799FF20E096
:101CA0000322A31DDA770123F3E7A369E268002A80
:101CB00001D0002B04D1042221002800FFF788FF67
:101CC000A269E16802230029E3D0002AE1D0A21D25
:101CD000D377E8E7A21DD17FCAB2022902D0032A36
:101CE0002DD0F8BD802189008B4226D1A369E268FE
:101CF000002A01D0002B04D1042221002800FFF784
:101D000067FFA369E268002A0FD0002B0DD06A6C30
:101D1000E3681A70A369013BA361E3680133E360E0
:101D2000E3690133E36101232B646369A26913430F
:101D3000D7D1621DD3772022ADE72A64D1E7802274
:101D4000D20093421AD163692269002A01D0002B84
:101D500004D1022221002800FFF73AFF63692269BB
:101D6000002AE2D0002BE0D023691B786B64636902
:101D7000013B6361236901332361D1E702232B64B3
:101D8000AFE70000094A0300002093420CD0084A44
:101D90000130934208D0074A0130934204D0064AEA
:101DA0009818431E984103307047C0460000054014
:101DB000004005400000074000C0F8BF10B50B22EE
:101DC00004000021013001F079FE01232370014B52
:101DD000636010BDA08601001E22036810B5134089
:101DE0000360FFF7CFFF044A0449105C01228240E0
:101DF000CB6F9343CB6710BDD440000004800440F8
:101E00000A23F0B5534389B006934B005B42079316
:101E1000122309244B4302932300002607000D00E0
:101E20004B43059201930496009602990698FEF79B
:101E30006DFB431D18000A210393FEF767FB802307
:101E40005B02984200D91800019B059A43435B004E
:101E5000D31AB34224D3002E22D00498002B0FD0E3
:101E6000A022039B120393420AD2079A029B944634
:101E700063440293019B013C5B1B0193012C0DD138
:101E80007021009B0138023B1A010A4069390B405E
:101E900080B2134378617B6209B0F0BD0490C4E75F
:101EA0001E000094DAE70000F8B501260D001700C7
:101EB0000400FFF767FF32000F4BD96F9C460F4BB2
:101EC0001B5C9A40130062460B43D3670C4B185CB3
:101ED000FFF784FD2B781E22002B09D023681340C6
:101EE0001E4326603A0069682000FFF789FFF8BDAD
:101EF000236813402360F5E704800440D4400000C9
:101F0000D040000070B5160005000C00FFF79AFDE8
:101F1000054A904207D0012300201E40640034434C
:101F2000DB18AC622B6270BDD319000010B5040041
:101F3000FFF788FD034A904202D004230020236269
:101F400010BDC046D3190000F7B504000E001500FF
:101F5000402701932000002D15D1FFF773FD50237A
:101F60000421019A03400A40134303D12000216257
:101F7000FFF768FDC3060BD4402203001340104254
:101F80000AD1180005E0FFF75DFD1023184201D0CB
:101F90000D48FEBD384201D00C48FAE70007400F5B
:101FA00003280AD004280AD002280AD13378013D38
:101FB000A36201232362F618CCE70548E9E7054848
:101FC000E7E70548E5E7C046CD190000D019000055
:101FD000D2190000CA190000D1190000F7B5040099
:101FE0000E001500002007270193002D06D1C3061F
:101FF0002AD4164B4006C017184011E02000FFF706
:1020000021FD50231842F2D143083B40012B08D058
:102010000120033B98428041072318400C4BC01815
:10202000FEBDA26A711C013D00913270002D02D0EC
:102030002362009ED9E70423019A1A42F9D12000B5
:102040002362FFF7FFFCF4E70248E9E7D01900003C
:10205000CA190000CD190000F0B50F6801233A003D
:1020600006000D0085B01A401F420ED0AB79002B40
:102070003CD00024012B30D16A69A2422DD03B0014
:1020800030002969FFF7AAFF39E0CB6800930B798C
:102090000193009B002B27D00199FFF733FF041E0B
:1020A00015D1009BAA68013B03A9002B18DA042371
:1020B0003000009AFFF748FF041E08D1AA79012AD0
:1020C000D4D130000199FFF71DFF041ECED00D4B77
:1020D0009C4202D13000FFF729FF200005B0F0BD7F
:1020E000CA54120A013BE0E78A79EAE76A691C00F0
:1020F000002AF2D03B0030002969FFF725FF0400D9
:10210000E5E7C046CA190000F8B50C000500170045
:102110000021382220001E0001F0D0FC2800FFF72B
:1021200031FE0B4B8200D4500A4B0B4A27631A60D6
:1021300051236663EB60094B1B56002B06DB1F2205
:1021400013401E3A9A401300054A1360F8BDC0467A
:10215000A4000010A0000010551A0000CC400000A0
:1021600000E100E0F0B50D7804009446002D3AD16E
:102170005123C3600B0010001833C4C8C4C3C4C8C3
:10218000C4C3886ACB6AC86088694D608B600D6182
:10219000C00712D5002B0CD08B7F002B0BD0012B4E
:1021A0001FD1023300200B70502363600133A36002
:1021B000F0BD0723F6E70223F4E7486A00280AD0B7
:1021C00004280ED863460A009D68DB681432013B80
:1021D000002B02DA08610623E4E7D5542D0A013BFF
:1021E000F6E70248E0E70248E2E7C046CB19000004
:1021F000C81900000420002A04D00B78002B02D15B
:102200001360023070474B6800201360FAE70B78C8
:1022100070B504000D00002B0DD05123C360FFF7F3
:1022200011FC0E23184204D00A3B20002362FFF762
:1022300009FC00232B70002070BD0000F7B581263B
:1022400009683602C66001934F1D0400F87F0A61D9
:10225000431E98410A4B40421840019B00254B61A8
:102260000623089ACD6013438D61CD618B600123F5
:10227000FB77DB18236063686360A660FEBDC04621
:10228000C8190000F7B5812609683602C6600193B7
:102290004F1D0400F87F0025431E98410A4B404221
:1022A0001840019B0D614D61CA608B610623089A3D
:1022B000CD6113438B600123FB77DB1823606368D8
:1022C0006360A660FEBDC046C819000010B5FF24BB
:1022D0005200224012311A4389000A5010BD0000FA
:1022E0001FB58023054A5B04029201A90C220193C9
:1022F000039301F0E5FC05B000BDC04600010001FC
:10230000F7B501270C0001920500FFF73BFD3E00E9
:10231000204B214A1B5CD16F9E4033000B43D36797
:102320001E4B185CFFF75AFBA37A0420032B2FD80F
:10233000FA211B4A89000198D65CFEF7E7F8194993
:102340007043FEF7E3F82378FF22BB4068616178B1
:1023500013400B43AB64A378E178BB4013400B43BD
:10236000EB6423796179BB4013400B432B65A37960
:10237000E179BB4013400B436B65637A0020BB409F
:102380001340227A3A401343AB65E37ABB402B609B
:10239000FEBDC046D440000004800440D040000090
:1023A000C840000040420F00002310B50360FFF753
:1023B000E9FC044A0449105C01228240CB6F93433C
:1023C000CB6710BDD440000004800440F0B5022368
:1023D00080240360640043682342FCD01C4CA34269
:1023E00001D11B48F0BDC0251E00ED002E402B4240
:1023F00007D08025ED00AE420CD000230360012001
:10240000F0E70123802503646D0043682B42FCD074
:10241000A342E6D0802580266D000127AC46F60059
:10242000002A01D10020DDE7C025ED002B40B3429A
:10243000E3D10B78013A436401310764002AF1D0FB
:10244000654643682B42FBD0A342E9D1C9E7C046A9
:10245000D3190000F0B502238024036064004368B0
:102460002342FCD01C4CA34201D11B48F0BDC02527
:102470001E00ED002E402B4207D08025AD00AE425D
:102480000CD0002303600120F0E7012380250364C2
:102490006D0043682B42FCD0A342E6D08025802605
:1024A0006D000127AC46B600002A01D10020DDE70F
:1024B000C025ED002B40B342E3D1436C013A0B70D1
:1024C00007640131002AF1D0654643682B42FBD0F6
:1024D000A342E9D1C9E7C046D3190000F8B5050009
:1024E0000C001700081D2C2200211E0001F0E6FA46
:1024F0002800FFF747FC0022A31DA762E662DA77F7
:102500000A4B8200D4500A4B0A4A24601A60812385
:102510001B02EB60084B1B56002B06DB1F221340EF
:102520001E3A9A401300054A1360F8BDA40000103B
:102530009C000010391C0000CC40000000E100E0CD
:10254000F0B5812500242D02C5604E1D0300F07FEB
:102550000C614C61CC608C61CC6106341443012267
:10256000471EB8418C60F27792181A60034F5A6880
:10257000404238405A609D60F0BDC046C819000016
:102580000420002A06D04B1DDB7FD8B2002B02D1DD
:10259000106006207047CB6900201360FAE78123A2
:1025A0001B02C36000234A1D0360D3774B618B611C
:1025B0007047000010B5034B03481968FFF72EFB66
:1025C00010BDC046A40000100000054010B5034B2C
:1025D00003485968FFF722FB10BDC046A400001055
:1025E0000040054010B5034B03489968FFF716FB00
:1025F00010BDC046A400001000000740F0B5CE4654
:102600009946030C9C46130447461B0C1D000E0004
:1026100061460404240C80B50700100C4B4365434D
:10262000414360432C0CC01824188C46A34203D9A4
:1026300080235B029846C444494679435643230CA1
:102640002D042D0C8919634424046019C918C0BCD9
:10265000B946B046F0BDC0469E2110B5C905041C60
:10266000FEF7FAF8002803D1201C00F057FE10BD39
:102670009E21201CC90500F08BFC00F04FFE80233A
:102680001B069C466044F2E7F0B557464E46454669
:10269000DE46E0B504000D009246994683B08B42B9
:1026A00030D82DD049465046FEF742F929000600A1
:1026B0002000FEF73DF9331A9846203B34D49B4660
:1026C00053465A46934042461F00534693401E00CD
:1026D000AF423BD8AF4200D179E05B46A41BBD417D
:1026E000002B00DA76E00022002300920193012300
:1026F0005A4693400193012342469340009329E0B8
:102700008242CFD900220023009201930C9B002B20
:1027100001D01C605D600098019903B0F0BCBB461D
:10272000B246A946A046F0BD42469B4620239B1ACE
:102730005246DA40414613004A468A401700424654
:102740001F43534693401E00AF42C3D900220023CB
:10275000009201934346002BD8D0FB0772081A431E
:1027600046467B080EE0AB4201D1A2420CD8A41A27
:102770009D41012024196D410021013E24184D4145
:10278000002E06D0AB42EED9013E24196D41002E39
:10279000F8D1009801995B4600196941002B24DBB0
:1027A0002B005A464446D3402A00E2401C005B46B8
:1027B0001500002B2ADB26009E40330026004746EA
:1027C000BE403200801A9941009001919EE7A342D9
:1027D000BCD882E74246202300219B1A00220091A8
:1027E00001920122DA40019285E7424620239B1A9A
:1027F0002A0046469A402300F340444613432A00E9
:10280000E2401C005B461500002BD4DA42462F0044
:102810002023260097409B1ADE403B003343CDE740
:10282000F8B5CE46474680B59146984604000D005F
:1028300000F0DEFD07000E0002000B004846414696
:10284000FFF7DCFE241A8D41089B380031001C6024
:102850005D60C0BCB946B046F8BDC046F0B5C646DE
:1028600043025B0A9C461F00DE004B025A0A4500E9
:1028700090464A002D0E120EC40F00B5C90F9B09D9
:10288000A81A8C4221D000280DDD002A2DD1002B62
:1028900000D195E0421E012800D131E1FF2800D18E
:1028A00094E0100027E0002862D0501B002D00D0DB
:1028B000E1E0002E00D181E0441E012800D142E178
:1028C000FF2800D119E12000DAE0002800DC9CE0BC
:1028D000002A69D0FF2D00D178E08022D204134372
:1028E0001B2800DC7DE001362AE0FF2D00D16DE0E1
:1028F0008022D204134301221B2807DC2021091A5D
:102900001A008B40C240591E8B411A43B61A7301FC
:1029100000D477E0B601B7093800FDF7EBFF0538C2
:102920008740854200DD82E020223B00401B0130D1
:10293000121A3E009340C6405A1E934100251E4382
:10294000730704D00F233340042B00D004367301E7
:1029500037D5681CFE2D52D08E4BC0B233409B0140
:102960005F0AC0053843E407204380BCB846F0BD89
:10297000FE206A1C104274D1002D00D0AAE0002E67
:1029800000D1DAE00020002BEBD08022F71AD2042D
:10299000174200D1ECE09B1B134200D1F2E07D4ACC
:1029A0000C0013400130DAE7002B09D0421E012849
:1029B00000D196E0FF2809D0100091E70C001E001E
:1029C0000500F3089C46FF2D00D091E06346002BE4
:1029D00015D080276346FF031F437F02FF207F0A35
:1029E000BFE72021091A1A008B40C240591E8B41B3
:1029F0001343F618730105D50135FF2D54D1FF207F
:102A00000027AEE773079DD1DBE7002813D0501BEA
:102A1000002D50D1002ED2D0411E012840D0FF28D9
:102A20006CD008001B286EDD15005E1C88E7594E2F
:102A30002D1A3E4084E7FE216A1C114241D1002D2F
:102A40006CD1002E00D190E00020002B00D188E74F
:102A5000F318DF087F027F0A5B0100D481E70120C1
:102A60007FE7F71A7A0132D4002F00D054E7002410
:102A70000020002775E7FF2A3FD08024E404264386
:102A800001241B2808DC35001F34241AA640C54049
:102A9000741EA6412C0034431E1B15000C0036E7A3
:102AA000F6180235730120D501233B4A33407608DE
:102AB00016401E4344E7FF2A20D08021C9040E435C
:102AC000B0E7FF2A9BD0F6181500760838E70C000F
:102AD0009F1B21E7002E3AD1002B4ED0C4460C009C
:102AE00077E7F61802257301DED4F3089C4601252A
:102AF00063465F027F0AE8B233E70C00C44665E72D
:102B00000125F61A03E731002025C140281A864026
:102B1000701E86410E431500F6186BE7002EEDD0AF
:102B2000002B00D155E78023DB039C4500D250E702
:102B3000984500D34DE7C4464BE7002B97D00C00D7
:102B4000474600200DE70C009E1B0135DFE6002BF9
:102B500000D13EE78023DB039C4500D239E798454E
:102B600000D336E70C00C44633E747460020F8E6BA
:102B7000002F0BD0BF017F0AF3E680270024FF203F
:102B8000FF03EEE69B010C005F0AEAE60024002743
:102B9000E7E6C046FFFFFFFBFFFFFF7D70B5420089
:102BA0004E024C0045026D0A120EC30F760A240E27
:102BB000C90FFF2A10D0FF2C0CD00120A2420AD14D
:102BC000B54208D18B420FD0002A04D12800431E01
:102BD000984100E0012070BD0120FF2CFBD135435E
:102BE000F9D14B401800F6E70020F4E730B5420079
:102BF00044024D02C30F4800640A120E6D0A000E13
:102C0000C90FFF2A17D0FF280AD0002A1BD100289D
:102C10000AD1002D24D0002C2ED14800013830BD1F
:102C2000002D26D1002A01D1002CF6D08B4206D1EE
:102C300058000138F3E7002C1BD1FF2813D00120E6
:102C40005B421843EBE70028F9D08B42F7D1824270
:102C5000F5DCEDDBAC42F2D80020AC42DFD2E7E796
:102C6000002CDCD0EBE7002D03D18B42E7D1002014
:102C7000D5E702204042D2E78B42EBD0DFE7C046E7
:102C800030B5420044024D02C30F4800640A120EE0
:102C90006D0A000EC90FFF2A18D0FF280DD0002A98
:102CA0001CD100280DD1002D27D0002C0BD08B4239
:102CB0001BD001205B4218430FE0002D0CD1002AED
:102CC0001ED1002C1CD14800013806E0002C03D195
:102CD000FF28EED1002D16D0022030BD0028E8D00C
:102CE0008B42E6D18242E4DC04DBAC42E1D8002036
:102CF000AC42F2D258000138EFE7002CEDD0D8E713
:102D00008B42D6D1F6E700208B42E6D0D1E7C04611
:102D1000F0B54F464646D6464502C0B546000F1CA4
:102D20006D0A360EC40F002E00D1C3E0FF2E77D0FF
:102D30008023ED00DB041D43002399469A467F3E25
:102D40007B025B0A98467B001B0EFF0F002B77D09F
:102D5000FF2B00D194E042468021D200C9041143E8
:102D6000884600217F3BF6184B46721C0A2B73DC09
:102D70004B467C40022B00DCA7E048460123834001
:102D8000A620C000034267D190208000034200D0FB
:102D9000ECE0B938FF38184200D0DAE041460904C7
:102DA000090C43460F00280C2D041B0C2D0C6F43FF
:102DB00041435D4358436D183B0C5B19994203D95D
:102DC000802149028C4660443F0419043F0CC91914
:102DD0008D016F1EBD411B0C890E1B180D439B01FD
:102DE0001D431B0100D4C6E0012369081D400D43AB
:102DF00010007F30002800DC94E06B0704D00F2324
:102E00002B40042B00D004352B0103D58032100059
:102E10005E4B1D40FE2855DCAB015B0AC0B226E0CC
:102E2000002D00D078E008239946063B9A467B02A5
:102E30005B0A98467B00FF261B0EFF0F002B87D1F5
:102E40004346002B56D14A4601331A4391464B461E
:102E50000121721C0A2B8BDD5346022B32D0032B2F
:102E600000D17CE05346012BC2D100200023C005D5
:102E70001843E4072043E0BCBA46B146A846F0BD7B
:102E800033004246FF33002A3FD003224946114314
:102E9000721C8946FF320A2973DD0F295DD1802318
:102EA000DB031D425BD042461A4258D13C00FF2052
:102EB0001343DCE7002D11D104239946033B002680
:102EC0009A463DE7FF200023D1E7013B012B00D9C3
:102ED00064E70229F6D045468A46C3E72800FDF795
:102EE00009FD7626431F9D400023764299469A4667
:102EF000361A25E74046FDF7FDFC4246431F9A403F
:102F0000361A90460021763E2EE74946023211439A
:102F100089461E00022127E70C239946093BFF261C
:102F20009A460DE701231B1A1B2B9EDC9E322900BB
:102F30009540D9406A1E95410D436B0704D00F237D
:102F40002B40042B00D004356B0116D50120002343
:102F50008DE73C0045468A467EE73C004546802397
:102F6000DB032B435B02FF205B0A80E78023002406
:102F7000FF20DB037BE732003AE7AB0100205B0A6E
:102F800075E71E0003217C40F7E6C046FFFFFFF710
:102F9000F0B546464F46D64643025B0AC0B59C464E
:102FA0001F00DE004B025A0A904645004A002D0ED3
:102FB000C40F120EC90F9B09FF2A26D001204140E1
:102FC000A81A8C4210D0002800DC8AE1002A48D1DF
:102FD000002B00D1AEE0421E012800D13FE1FF28C6
:102FE00000D1ADE0100041E0002800DC86E1002ABD
:102FF00000D182E0FF2D00D1A2E08022D204134351
:103000001B2800DC83E0013654E02800FF388246AC
:10301000002B69D1012041408C4200D1D8E05046BC
:10302000002800D19AE00C00002D00D07DE0FF20A8
:10303000002E00D17CE0471E012800D12CE10C00BD
:10304000FF2800D109E101211B2F07DC2020C01B34
:1030500031008640F940701E8641314315005E1AEA
:1030600010E0FF2D6CD08022D204134301221B28D4
:1030700007DC2021091A1A008B40C240591E8B41DF
:103080001A43B61A730166D5B601B7093800FDF7C1
:1030900031FC05388740854200DD7AE020223B0084
:1030A000401B0130121A3E009340C6405A1E934105
:1030B00000251E43730704D00F233340042B00D098
:1030C0000436730137D5681CFE2D2ED0914BC0B24B
:1030D00033409B015F0AC0053843E4072043E0BC4E
:1030E000BA46B146A846F0BD8C4260D0002835D023
:1030F000002D9CD00C00C44622E0002B1AD0421EAA
:10310000012800D19DE0FF281AD0100078E7202187
:10311000091A1A008B40C240591E8B411343F618FE
:10312000730118D50135FF2D6AD1FF200027D2E7A2
:103130000C001E000500F3089C46FF2D00D087E020
:103140006346002BF1D080276346FF031F437F02B5
:10315000FF207F0ABFE77307AED1ECE7FE206A1CB1
:1031600010421AD1002D63D1002E00D198E000202A
:10317000002BB0D08022F71AD204174200D1A8E069
:1031800001249B1B0C401342A3D0624A0130134020
:103190009FE7604E2D1A3E408CE7F71A7A0143D420
:1031A000002F00D072E700240020002793E70028BA
:1031B00011D0002D51D1FF20002EBAD0411E012880
:1031C0003FD0FF2849D01B294CDD15005E1C71E75C
:1031D000514600291BD1FE216A1C11421ED1002D2F
:1031E0004BD1002E72D00020002B00D173E7F318D2
:1031F000DF087F027F0A5B0100D46CE701206AE7E9
:103200000123454A3340760816401E4352E7002DFD
:10321000D1D08AE7FE216A1C0A42E2D0FF2A84D07C
:10322000F6181500760845E701249F1B0C402DE792
:10323000002E3CD1002B45D180270024FF20FF0326
:1032400049E7F61802257301DAD4F3089C460125F4
:1032500063465F027F0AE8B23DE7C44670E7012596
:10326000F61A0FE730002025C840691A8E40711EFB
:103270008E4106431500F61852E7002EEDD0002BC4
:1032800000D160E78023DB039C4500D25BE79845D3
:1032900000D358E7C44656E70C0001259E1BF1E613
:1032A000002B80D00124474600200C4013E7002B60
:1032B00000D148E78023DB039C4500D243E79845D3
:1032C00000D340E70124C4460C403CE747460020B9
:1032D00001E7002F02D0BF017F0AFCE6002400278F
:1032E000F9E6002800D139E7571B3800002D00D13E
:1032F0009EE68020C0040C000643A4E6002889D086
:10330000511B002D01D1080056E78020C004064360
:1033100059E7C046FFFFFFFBFFFFFF7D4102420070
:10332000C30F490A0020120E7E2A03DD9D2A02DD0A
:10333000094A98187047802000040143952A07DC49
:103340009620821AD1404842002BF3D10800F1E7C1
:10335000963A9140F7E7C046FFFFFF7F70B500281F
:1033600013D0C317C5185D40C40F2800FDF7C2FA7B
:103370009E2301001B1A962B0FDC082831D0083938
:103380008D406D026D0AD8B202E0002400200025B5
:10339000C0052843E407204370BD992B15DC421F6C
:1033A00095402A00150011480540560709D00F2600
:1033B0003240042A05D004356A0102D59F23054016
:1033C0005B1AAD016D0AD8B2E2E70522121A280095
:1033D000D0400A001B3295402A00551EAA410243E4
:1033E000E0E76D0296206D0AD2E7C046FFFFFFFBC3
:1033F000F0B5D6464F464646C0B504000D00100055
:10340000190082B0002D00DA87E0002B0BDB1600DC
:103410001F00AB4219D90020002102B0E0BCBA461F
:10342000B146A846F0BD002746428F41AF4204D8BE
:1034300000D082E0A64200D87FE0002000218FE08B
:10344000002746428F419F42E5D8AF4200D198E025
:103450000023994639003000FDF76AFA80462900BA
:103460002000FDF765FA43461B1A9846203B00D51D
:103470007CE0310099409A460B0031004046814083
:103480000A00AB425FD85CD05146A41A9D41002986
:1034900000DA93E0002100200126009001915146BE
:1034A0008E400196414601268E40414600960029F5
:1034B00050D0D90756080E435F0841460122002329
:1034C0000CE0AF4201D1A6420AD8A41BBD41241989
:1034D0006D410139A4185D41002906D0AF42F0D9F1
:1034E000013924196D410029F8D1009801995346FA
:1034F00000196941002B48DB2E002C00DE404346BA
:10350000DC405346002B50DB34009C4023004446F3
:10351000A6403200801A99411EE000236242AB416E
:1035200014001D0000298BDB06000F00994200D912
:1035300071E702D1904200D96DE701235B429946C1
:1035400088E7A142A0D900210020009001914146C6
:103550000029AED1009801994B46002B00D15CE7C1
:1035600003000C0000215842A14156E742463800B2
:103570009A462023310090409B1AD94003000B4308
:103580007BE7A64200D863E745E7424620239B1A23
:103590002A009A40260013004246D6402C001E43C3
:1035A0004346DC405346002BAEDA4246202335002A
:1035B00094409B1ADD4023002B43A8E74146202678
:1035C0000127761A00200021F74000900191019711
:1035D00068E7C046074B10B50400002B02D000215D
:1035E00000E000BF044B1B68002B00D09847200070
:1035F00000F0B2FC00000000F401001010B5034B15
:103600000100186800F030F810BDC046140000102A
:1036100010B5034B0100186800F05CFB10BDC046FC
:103620001400001070B50F4E0D0031680400002921
:1036300002D100F0EFFA30602900200000F0EAFA31
:10364000431C03D101256D42280070BD0323C51C16
:103650009D43A842F8D0291A200000F0DBFA01307F
:10366000F2D1EFE7B4000010F7B50322CB1C93436F
:10367000083305001F000C2B34D20C27B94233D875
:10368000280000F071F8374E33681C00002C2FD151
:1036900039002800FFF7C6FF0400431C5FD13468DF
:1036A0000094009B002B4AD1002C52D023682800A4
:1036B000E3180099019300F0ADFA019B834248D1D1
:1036C00023682800FF1A3900FFF7ACFF013040D013
:1036D0002368DB19236033685A68002A33D1009BC2
:1036E000336019E0002BC9DA0C232B600020FEBDEB
:1036F0002168C91B20D40B290AD9E2192760A342EB
:1037000004D1326063681160536005E05A60F9E7E4
:103710006268A3420ED13260280000F02DF820002C
:1037200007220B30231D9043C21A9842DFD01B1A88
:10373000A350DCE75A60EFE723006468A6E7009C2B
:1037400063680093ADE71A005B68A342FBD10023D6
:10375000DAE70C2328002B6000F00EF8C6E70760BC
:10376000DAE7C046B800001010B5024800F0A1FA30
:1037700010BDC0460002001010B5024800F09FFACC
:1037800010BDC04600020010002310B50400036005
:103790004360836081814366C281036143618361C9
:1037A000190008225C3000F089F90B4B2462636237
:1037B0000A4BA3620A4BE3620A4B23630A4B9C4207
:1037C00005D00A4B9C4202D0094B9C4203D12000F9
:1037D000583000F06AFA10BD213A00004D3A00005E
:1037E000853A0000B13A0000BC000010240100102E
:1037F0008C01001010B5034A0349044800F0F4F8A6
:1038000010BDC04608000010753E000018000010F2
:1038100041680B4B10B50400994201D000F02AFB1F
:10382000A168084B994202D0200000F023FBE16818
:10383000054B994202D0200000F01CFB10BDC04691
:10384000BC000010240100108C0100104B6E10B55C
:10385000DB0705D48B899B0502D4886D00F029FA1B
:10386000002010BD4B6E10B5DB0705D48B899B057E
:1038700002D4886D00F023FA002010BD10B5094B6A
:10388000094A04211A6009480022FFF77DFF01223E
:1038900009210748FFF778FF022212210548FFF7A8
:1038A00073FF10BDF4010010F5370000BC000010DC
:1038B000240100108C01001010B5024800F0F9F945
:1038C00010BDC0460302001010B5024800F0F7F921
:1038D00010BDC04603020010F8B50700FFF7ECFF6B
:1038E000244B1B68002B01D1FFF7C8FF224EB468A0
:1038F0007368013B0FD53568002D38D1D6213800CB
:103900004900FFF7B1FE041E26D13060FFF7DCFF4F
:103910000C233B601CE00C22A55E002D1AD1200078
:10392000164B5830E360656600F0BFF9FFF7CCFF37
:103930002000082229002560A56065602561656179
:10394000A5615C3000F0BAF86563A563A564E56421
:103950002000F8BD6834CCE70423D0220560436022
:103960000C302900A060520000F0A8F834603668DE
:10397000BDE7C046F4010010080000100100FFFF81
:1039800010B50400FFF798FF236A002B02D0FFF761
:103990009BFF10BD044B2362044B1B68002BF6D128
:1039A000FFF76CFFF3E7C04611380000F401001088
:1039B00010B5FFF781FF0020024A034900F014F818
:1039C00010BDC046080000104D38000010B5044A74
:1039D0000449002000F008F8FFF776FF10BDC0464C
:1039E0000800001065380000F7B5140000260090AC
:1039F0000191A5686768013F04D52468002CF8D1BF
:103A00003000FEBDAB89012B08D90E22AB5E01331D
:103A100004D029000098019B984706436835EAE7DF
:103A200070B50C000E25495F00F0E0F8002803DBBC
:103A3000636D1B18636570BDA389024A1340A3819F
:103A4000F9E7C046FFEFFFFF00207047F8B51F0001
:103A50008B8905000C001600DB0505D50E23C95E19
:103A60000022022300F0AEF8A389054A2800134083
:103A7000A38132000E23E15E3B0000F0DDF8F8BDCB
:103A8000FFEFFFFF70B50C000E25495F00F09AF8BC
:103A9000A389421C03D1054A1340A38170BD802233
:103AA00052011343A3816065F8E7C046FFEFFFFFB3
:103AB00010B50E23C95E00F009F810BD030082188E
:103AC000934200D1704719700133F9E7002370B5B4
:103AD000064D040008002B6000F010FA431C03D1CF
:103AE0002B68002B00D0236070BDC046F801001089
:103AF000334B70B51B68040083425FD0C369002B51
:103B000027D0DB68002B0DD00025E369DB6859590D
:103B1000002918D10435802DF7D1E3692000D96838
:103B200000F0D8F8E3691968002902D0200000F0FD
:103B3000D1F8E3699D68002D0BD0290020002D6885
:103B400000F0C8F8F7E70E68200000F0C3F8310075
:103B5000DEE76169002902D0200000F0BBF8E169CE
:103B6000002902D0200000F0B5F8216B002902D016
:103B7000200000F0AFF8616B002902D0200000F0B7
:103B8000A9F8A16B002902D0200000F0A3F8A16CD5
:103B9000002902D0200000F09DF8616C002902D0BD
:103BA000200000F097F8E16A002902D0200000F020
:103BB00091F8236A002B01D02000984770BDC046C1
:103BC0001400001070B50400080011001A00002352
:103BD000054D2B6000F09AF9431C03D12B68002B94
:103BE00000D0236070BDC046F801001070B504001D
:103BF000080011001A000023054D2B6000F08EF91B
:103C0000431C03D12B68002B00D0236070BDC0463D
:103C1000F8010010002370B5064D040008002B6069
:103C200000F084F9431C03D12B68002B00D02360E3
:103C300070BDC046F801001070B504000800110006
:103C40001A000023054D2B6000F07EF9431C03D1C0
:103C50002B68002B00D0236070BDC046F801001017
:103C600070B500260C4C0D4D641BA410A64209D162
:103C7000002600F045FA0A4C0A4D641BA410A64227
:103C800005D170BDB300EB5898470136EEE7B3009D
:103C9000EB5898470136F2E7204100002041000030
:103CA0002441000020410000704770477047704772
:103CB0007047704701207047012070477047704778
:103CC000002310B59A4200D110BDCC5CC45401331E
:103CD000F8E7000070B505000C1E10D0043C236806
:103CE000002B00DAE4182800FFF73EFD1D4A136898
:103CF000002B05D1636014602800FFF73DFD70BD07
:103D0000A34208D9206821188B42F3D119685B6857
:103D100009182160EEE71A005B68002B01D0A3426E
:103D2000F9D911685018A0420BD120680918501811
:103D300011608342E0D118685B68411811605360DC
:103D4000DAE7A04202D90C232B60D5E720682118BE
:103D50008B4203D119685B68091821606360546065
:103D6000CAE7C046B8000010F7B50C228B5E05000C
:103D70000C001A0756D44A68002A02DC0A6C002A92
:103D80004EDDE76A002F4BD0002280202E682A608B
:103D90001A004001216A0240034233D0626DA389B8
:103DA0005B0706D56368D21A636B002B01D0236CC6
:103DB000D21A00232800E76A216AB847A289431C67
:103DC00006D129681D2946D8294BCB40DB0742D5AF
:103DD0000023636023692360D20405D5431C02D10C
:103DE0002B68002B00D16065616B2E60002917D015
:103DF00023004433994202D02800FFF76BFF0023D1
:103E000063630DE001232800B8470200431CC6D1BC
:103E10002B68002BC3D01D2B01D0162B1AD12E607E
:103E200000201EE00E69002EFAD00F680E60BA1B4B
:103E3000019200229B0700D14A69A260019B002BDE
:103E4000EEDDA36A32001F002800019B216AB847FB
:103E5000002807DCA2894023012013431BB2A38161
:103E60004042FEBD019B36181B1A0193E6E7C0468F
:103E7000010040200B6970B505000C00002B02D139
:103E80000025280070BD002804D0036A002B01D152
:103E9000FFF776FD0C22A35E002BF1D0626ED207F5
:103EA00004D49B0502D4A06DFFF703FF2800210076
:103EB000FFF75AFF636E0500DB07E2D4A3899B0579
:103EC000DFD4A06DFFF7FBFEDBE70000010010B5BB
:103ED000002805D1054A06490648FFF785FD10BDB3
:103EE000054B1868FFF7C6FFF9E7C0460800001049
:103EF000753E000018000010140000105822012028
:103F0000014B40421A607047F8010010582201200E
:103F1000014B40421A607047F801001058220120FE
:103F2000014B40421A607047F8010010044A030038
:103F30001068002802D0C318136070470148FAE7E0
:103F4000040200100802001058220120014B4042D8
:103F50001A607047F8010010FEE7C0463E410C4170
:103F60001141274136410341064115410F410E41A0
:103F7000264113412941024119410A410B410000E8
:103F80000D0A0D0A204558504552494D454E5420C2
:103F9000342E200D0A000A4C4D373520436F6E66D3
:103FA000696775726174696F6E0A0A000A0A416C6A
:103FB00061726D20436F6E66696775726174696FB7
:103FC0006E0A000A20557070657220616C61726D16
:103FD0002074656D703D20002043656C63697573C6
:103FE000204465677265650A0D000A204C6F77658D
:103FF0007220616C61726D2074656D703D200049A6
:10400000324320696E697469616C697A6174696FA1
:104010006E20636F6D706C6574652E0A0A00543DE6
:10402000002064656720430A0D0025642E00256486
:104030000030300054203D2025642E25303364208C
:1040400064656720460A0D005175657565205661E7
:104050006C7565203D20310A0051756575652056E7
:10406000616C7565203D20320A00517565756520CB
:1040700056616C7565203D20340A00517565756583
:104080002056616C7565203D20360A00C027090066
:1040900090051000C05C1500F0B31A00200B200042
:1040A000009F2400E0322900C0C62D005097310047
:1040B000E06735007038390000093D0040164000C7
:1040C00080234300C0304600FA64320A0807151600
:1040D000060E0F10051516173E410C4111412741E0
:1040E00036410341064115410F410E41264113411E
:1040F0002941024119410A410B4100000000000022
:10410000F8B5C046F8BC08BC9E467047F8B5C04636
:08411000F8BC08BC9E46704794
:08411800E8C1FF7F0100000077
:04412000BD090000D5
:0441240091090000FD
:1041280000000000001BB7000000000003000000B2
:10413800BC0000101800001000000000BC000010B7
:10414800240100108C010010000000000000000095
:104158000000000000000000000000000000000057
:104168000000000000000000000000000000000047
:104178000000000000000000000000000000000037
:044188000000000033
:040000030000038175
:00000001FF
